{
  "_format": "hh-sol-artifact-1",
  "contractName": "MockGameNFT",
  "sourceName": "contracts/MockGameNFT.sol",
  "abi": [
    {
      "inputs": [
        {
          "internalType": "string",
          "name": "name",
          "type": "string"
        },
        {
          "internalType": "string",
          "name": "symbol",
          "type": "string"
        }
      ],
      "stateMutability": "nonpayable",
      "type": "constructor"
    },
    {
      "inputs": [
        {
          "internalType": "address",
          "name": "sender",
          "type": "address"
        },
        {
          "internalType": "uint256",
          "name": "tokenId",
          "type": "uint256"
        },
        {
          "internalType": "address",
          "name": "owner",
          "type": "address"
        }
      ],
      "name": "ERC721IncorrectOwner",
      "type": "error"
    },
    {
      "inputs": [
        {
          "internalType": "address",
          "name": "operator",
          "type": "address"
        },
        {
          "internalType": "uint256",
          "name": "tokenId",
          "type": "uint256"
        }
      ],
      "name": "ERC721InsufficientApproval",
      "type": "error"
    },
    {
      "inputs": [
        {
          "internalType": "address",
          "name": "approver",
          "type": "address"
        }
      ],
      "name": "ERC721InvalidApprover",
      "type": "error"
    },
    {
      "inputs": [
        {
          "internalType": "address",
          "name": "operator",
          "type": "address"
        }
      ],
      "name": "ERC721InvalidOperator",
      "type": "error"
    },
    {
      "inputs": [
        {
          "internalType": "address",
          "name": "owner",
          "type": "address"
        }
      ],
      "name": "ERC721InvalidOwner",
      "type": "error"
    },
    {
      "inputs": [
        {
          "internalType": "address",
          "name": "receiver",
          "type": "address"
        }
      ],
      "name": "ERC721InvalidReceiver",
      "type": "error"
    },
    {
      "inputs": [
        {
          "internalType": "address",
          "name": "sender",
          "type": "address"
        }
      ],
      "name": "ERC721InvalidSender",
      "type": "error"
    },
    {
      "inputs": [
        {
          "internalType": "uint256",
          "name": "tokenId",
          "type": "uint256"
        }
      ],
      "name": "ERC721NonexistentToken",
      "type": "error"
    },
    {
      "inputs": [
        {
          "internalType": "address",
          "name": "owner",
          "type": "address"
        }
      ],
      "name": "OwnableInvalidOwner",
      "type": "error"
    },
    {
      "inputs": [
        {
          "internalType": "address",
          "name": "account",
          "type": "address"
        }
      ],
      "name": "OwnableUnauthorizedAccount",
      "type": "error"
    },
    {
      "inputs": [
        {
          "internalType": "uint256",
          "name": "value",
          "type": "uint256"
        },
        {
          "internalType": "uint256",
          "name": "length",
          "type": "uint256"
        }
      ],
      "name": "StringsInsufficientHexLength",
      "type": "error"
    },
    {
      "anonymous": false,
      "inputs": [
        {
          "indexed": true,
          "internalType": "address",
          "name": "owner",
          "type": "address"
        },
        {
          "indexed": true,
          "internalType": "address",
          "name": "approved",
          "type": "address"
        },
        {
          "indexed": true,
          "internalType": "uint256",
          "name": "tokenId",
          "type": "uint256"
        }
      ],
      "name": "Approval",
      "type": "event"
    },
    {
      "anonymous": false,
      "inputs": [
        {
          "indexed": true,
          "internalType": "address",
          "name": "owner",
          "type": "address"
        },
        {
          "indexed": true,
          "internalType": "address",
          "name": "operator",
          "type": "address"
        },
        {
          "indexed": false,
          "internalType": "bool",
          "name": "approved",
          "type": "bool"
        }
      ],
      "name": "ApprovalForAll",
      "type": "event"
    },
    {
      "anonymous": false,
      "inputs": [
        {
          "indexed": true,
          "internalType": "address",
          "name": "previousOwner",
          "type": "address"
        },
        {
          "indexed": true,
          "internalType": "address",
          "name": "newOwner",
          "type": "address"
        }
      ],
      "name": "OwnershipTransferred",
      "type": "event"
    },
    {
      "anonymous": false,
      "inputs": [
        {
          "indexed": true,
          "internalType": "address",
          "name": "from",
          "type": "address"
        },
        {
          "indexed": true,
          "internalType": "address",
          "name": "to",
          "type": "address"
        },
        {
          "indexed": true,
          "internalType": "uint256",
          "name": "tokenId",
          "type": "uint256"
        }
      ],
      "name": "Transfer",
      "type": "event"
    },
    {
      "inputs": [
        {
          "internalType": "address",
          "name": "to",
          "type": "address"
        },
        {
          "internalType": "uint256",
          "name": "tokenId",
          "type": "uint256"
        }
      ],
      "name": "approve",
      "outputs": [],
      "stateMutability": "nonpayable",
      "type": "function"
    },
    {
      "inputs": [
        {
          "internalType": "address",
          "name": "owner",
          "type": "address"
        }
      ],
      "name": "balanceOf",
      "outputs": [
        {
          "internalType": "uint256",
          "name": "",
          "type": "uint256"
        }
      ],
      "stateMutability": "view",
      "type": "function"
    },
    {
      "inputs": [
        {
          "internalType": "uint256",
          "name": "tokenId",
          "type": "uint256"
        }
      ],
      "name": "exists",
      "outputs": [
        {
          "internalType": "bool",
          "name": "",
          "type": "bool"
        }
      ],
      "stateMutability": "view",
      "type": "function"
    },
    {
      "inputs": [
        {
          "internalType": "uint256",
          "name": "tokenId",
          "type": "uint256"
        }
      ],
      "name": "getApproved",
      "outputs": [
        {
          "internalType": "address",
          "name": "",
          "type": "address"
        }
      ],
      "stateMutability": "view",
      "type": "function"
    },
    {
      "inputs": [
        {
          "internalType": "address",
          "name": "owner",
          "type": "address"
        },
        {
          "internalType": "address",
          "name": "operator",
          "type": "address"
        }
      ],
      "name": "isApprovedForAll",
      "outputs": [
        {
          "internalType": "bool",
          "name": "",
          "type": "bool"
        }
      ],
      "stateMutability": "view",
      "type": "function"
    },
    {
      "inputs": [
        {
          "internalType": "address",
          "name": "to",
          "type": "address"
        },
        {
          "internalType": "uint256",
          "name": "tokenId",
          "type": "uint256"
        }
      ],
      "name": "mint",
      "outputs": [],
      "stateMutability": "nonpayable",
      "type": "function"
    },
    {
      "inputs": [],
      "name": "name",
      "outputs": [
        {
          "internalType": "string",
          "name": "",
          "type": "string"
        }
      ],
      "stateMutability": "view",
      "type": "function"
    },
    {
      "inputs": [],
      "name": "owner",
      "outputs": [
        {
          "internalType": "address",
          "name": "",
          "type": "address"
        }
      ],
      "stateMutability": "view",
      "type": "function"
    },
    {
      "inputs": [
        {
          "internalType": "uint256",
          "name": "tokenId",
          "type": "uint256"
        }
      ],
      "name": "ownerOf",
      "outputs": [
        {
          "internalType": "address",
          "name": "",
          "type": "address"
        }
      ],
      "stateMutability": "view",
      "type": "function"
    },
    {
      "inputs": [],
      "name": "renounceOwnership",
      "outputs": [],
      "stateMutability": "nonpayable",
      "type": "function"
    },
    {
      "inputs": [
        {
          "internalType": "address",
          "name": "from",
          "type": "address"
        },
        {
          "internalType": "address",
          "name": "to",
          "type": "address"
        },
        {
          "internalType": "uint256",
          "name": "tokenId",
          "type": "uint256"
        }
      ],
      "name": "safeTransferFrom",
      "outputs": [],
      "stateMutability": "nonpayable",
      "type": "function"
    },
    {
      "inputs": [
        {
          "internalType": "address",
          "name": "from",
          "type": "address"
        },
        {
          "internalType": "address",
          "name": "to",
          "type": "address"
        },
        {
          "internalType": "uint256",
          "name": "tokenId",
          "type": "uint256"
        },
        {
          "internalType": "bytes",
          "name": "data",
          "type": "bytes"
        }
      ],
      "name": "safeTransferFrom",
      "outputs": [],
      "stateMutability": "nonpayable",
      "type": "function"
    },
    {
      "inputs": [
        {
          "internalType": "address",
          "name": "operator",
          "type": "address"
        },
        {
          "internalType": "bool",
          "name": "approved",
          "type": "bool"
        }
      ],
      "name": "setApprovalForAll",
      "outputs": [],
      "stateMutability": "nonpayable",
      "type": "function"
    },
    {
      "inputs": [
        {
          "internalType": "bytes4",
          "name": "interfaceId",
          "type": "bytes4"
        }
      ],
      "name": "supportsInterface",
      "outputs": [
        {
          "internalType": "bool",
          "name": "",
          "type": "bool"
        }
      ],
      "stateMutability": "view",
      "type": "function"
    },
    {
      "inputs": [],
      "name": "symbol",
      "outputs": [
        {
          "internalType": "string",
          "name": "",
          "type": "string"
        }
      ],
      "stateMutability": "view",
      "type": "function"
    },
    {
      "inputs": [
        {
          "internalType": "uint256",
          "name": "tokenId",
          "type": "uint256"
        }
      ],
      "name": "tokenURI",
      "outputs": [
        {
          "internalType": "string",
          "name": "",
          "type": "string"
        }
      ],
      "stateMutability": "view",
      "type": "function"
    },
    {
      "inputs": [
        {
          "internalType": "address",
          "name": "from",
          "type": "address"
        },
        {
          "internalType": "address",
          "name": "to",
          "type": "address"
        },
        {
          "internalType": "uint256",
          "name": "tokenId",
          "type": "uint256"
        }
      ],
      "name": "transferFrom",
      "outputs": [],
      "stateMutability": "nonpayable",
      "type": "function"
    },
    {
      "inputs": [
        {
          "internalType": "address",
          "name": "newOwner",
          "type": "address"
        }
      ],
      "name": "transferOwnership",
      "outputs": [],
      "stateMutability": "nonpayable",
      "type": "function"
    }
  ],
  "bytecode": "0x60806040523480156200001157600080fd5b506040516200172e3803806200172e8339810160408190526200003491620001b1565b3382826000620000458382620002aa565b506001620000548282620002aa565b5050506001600160a01b0381166200008657604051631e4fbdf760e01b81526000600482015260240160405180910390fd5b62000091816200009a565b50505062000376565b600680546001600160a01b038381166001600160a01b0319831681179093556040519116919082907f8be0079c531659141344cd1fd0a4f28419497f9722a3daafe3b4186f6b6457e090600090a35050565b634e487b7160e01b600052604160045260246000fd5b600082601f8301126200011457600080fd5b81516001600160401b0380821115620001315762000131620000ec565b604051601f8301601f19908116603f011681019082821181831017156200015c576200015c620000ec565b816040528381526020925086838588010111156200017957600080fd5b600091505b838210156200019d57858201830151818301840152908201906200017e565b600093810190920192909252949350505050565b60008060408385031215620001c557600080fd5b82516001600160401b0380821115620001dd57600080fd5b620001eb8683870162000102565b935060208501519150808211156200020257600080fd5b50620002118582860162000102565b9150509250929050565b600181811c908216806200023057607f821691505b6020821081036200025157634e487b7160e01b600052602260045260246000fd5b50919050565b601f821115620002a557600081815260208120601f850160051c81016020861015620002805750805b601f850160051c820191505b81811015620002a1578281556001016200028c565b5050505b505050565b81516001600160401b03811115620002c657620002c6620000ec565b620002de81620002d784546200021b565b8462000257565b602080601f831160018114620003165760008415620002fd5750858301515b600019600386901b1c1916600185901b178555620002a1565b600085815260208120601f198616915b82811015620003475788860151825594840194600190910190840162000326565b5085821015620003665787850151600019600388901b60f8161c191681555b5050505050600190811b01905550565b6113a880620003866000396000f3fe608060405234801561001057600080fd5b50600436106101165760003560e01c806370a08231116100a2578063a22cb46511610071578063a22cb46514610251578063b88d4fde14610264578063c87b56dd14610277578063e985e9c51461028a578063f2fde38b1461029d57600080fd5b806370a082311461020f578063715018a6146102305780638da5cb5b1461023857806395d89b411461024957600080fd5b806323b872dd116100e957806323b872dd1461019857806340c10f19146101ab57806342842e0e146101be5780634f558e79146101d15780636352211e146101fc57600080fd5b806301ffc9a71461011b57806306fdde0314610143578063081812fc14610158578063095ea7b314610183575b600080fd5b61012e610129366004610f21565b6102b0565b60405190151581526020015b60405180910390f35b61014b610302565b60405161013a9190610f95565b61016b610166366004610fa8565b610394565b6040516001600160a01b03909116815260200161013a565b610196610191366004610fdd565b6103bd565b005b6101966101a6366004611007565b6103cc565b6101966101b9366004610fdd565b61045c565b6101966101cc366004611007565b61046e565b61012e6101df366004610fa8565b6000908152600260205260409020546001600160a01b0316151590565b61016b61020a366004610fa8565b61048e565b61022261021d366004611043565b610499565b60405190815260200161013a565b6101966104e1565b6006546001600160a01b031661016b565b61014b6104f5565b61019661025f36600461105e565b610504565b6101966102723660046110b0565b61050f565b61014b610285366004610fa8565b610527565b61012e61029836600461118c565b6105fa565b6101966102ab366004611043565b610628565b60006001600160e01b031982166380ac58cd60e01b14806102e157506001600160e01b03198216635b5e139f60e01b145b806102fc57506301ffc9a760e01b6001600160e01b03198316145b92915050565b606060008054610311906111bf565b80601f016020809104026020016040519081016040528092919081815260200182805461033d906111bf565b801561038a5780601f1061035f5761010080835404028352916020019161038a565b820191906000526020600020905b81548152906001019060200180831161036d57829003601f168201915b5050505050905090565b600061039f82610666565b506000828152600460205260409020546001600160a01b03166102fc565b6103c882823361069f565b5050565b6001600160a01b0382166103fb57604051633250574960e11b8152600060048201526024015b60405180910390fd5b60006104088383336106ac565b9050836001600160a01b0316816001600160a01b031614610456576040516364283d7b60e01b81526001600160a01b03808616600483015260248201849052821660448201526064016103f2565b50505050565b6104646107a5565b6103c882826107d2565b6104898383836040518060200160405280600081525061050f565b505050565b60006102fc82610666565b60006001600160a01b0382166104c5576040516322718ad960e21b8152600060048201526024016103f2565b506001600160a01b031660009081526003602052604090205490565b6104e96107a5565b6104f36000610837565b565b606060018054610311906111bf565b6103c8338383610889565b61051a8484846103cc565b6104563385858585610928565b6000818152600260205260409020546060906001600160a01b03166105855760405162461bcd60e51b8152602060048201526014602482015273151bdad95b88191bd95cc81b9bdd08195e1a5cdd60621b60448201526064016103f2565b60405180606001604052806026815260200161134d60269139604080518082019091526008815267657468657265756d60c01b60208201526105c8306014610a53565b6105d185610bd3565b6040516020016105e494939291906111f9565b6040516020818303038152906040529050919050565b6001600160a01b03918216600090815260056020908152604080832093909416825291909152205460ff1690565b6106306107a5565b6001600160a01b03811661065a57604051631e4fbdf760e01b8152600060048201526024016103f2565b61066381610837565b50565b6000818152600260205260408120546001600160a01b0316806102fc57604051637e27328960e01b8152600481018490526024016103f2565b6104898383836001610c66565b6000828152600260205260408120546001600160a01b03908116908316156106d9576106d9818486610d6c565b6001600160a01b03811615610717576106f6600085600080610c66565b6001600160a01b038116600090815260036020526040902080546000190190555b6001600160a01b03851615610746576001600160a01b0385166000908152600360205260409020805460010190555b60008481526002602052604080822080546001600160a01b0319166001600160a01b0389811691821790925591518793918516917fddf252ad1be2c89b69c2b068fc378daa952ba7f163c4a11628f55a4df523b3ef91a4949350505050565b6006546001600160a01b031633146104f35760405163118cdaa760e01b81523360048201526024016103f2565b6001600160a01b0382166107fc57604051633250574960e11b8152600060048201526024016103f2565b600061080a838360006106ac565b90506001600160a01b03811615610489576040516339e3563760e11b8152600060048201526024016103f2565b600680546001600160a01b038381166001600160a01b0319831681179093556040519116919082907f8be0079c531659141344cd1fd0a4f28419497f9722a3daafe3b4186f6b6457e090600090a35050565b6001600160a01b0382166108bb57604051630b61174360e31b81526001600160a01b03831660048201526024016103f2565b6001600160a01b03838116600081815260056020908152604080832094871680845294825291829020805460ff191686151590811790915591519182527f17307eab39ab6107e8899845ad3d59bd9653f200f220920489ca2b5937696c31910160405180910390a3505050565b6001600160a01b0383163b15610a4c57604051630a85bd0160e11b81526001600160a01b0384169063150b7a029061096a908890889087908790600401611285565b6020604051808303816000875af19250505080156109a5575060408051601f3d908101601f191682019092526109a2918101906112c2565b60015b610a0e573d8080156109d3576040519150601f19603f3d011682016040523d82523d6000602084013e6109d8565b606091505b508051600003610a0657604051633250574960e11b81526001600160a01b03851660048201526024016103f2565b805181602001fd5b6001600160e01b03198116630a85bd0160e11b14610a4a57604051633250574960e11b81526001600160a01b03851660048201526024016103f2565b505b5050505050565b6060826000610a638460026112f5565b610a6e90600261130c565b67ffffffffffffffff811115610a8657610a8661109a565b6040519080825280601f01601f191660200182016040528015610ab0576020820181803683370190505b509050600360fc1b81600081518110610acb57610acb61131f565b60200101906001600160f81b031916908160001a905350600f60fb1b81600181518110610afa57610afa61131f565b60200101906001600160f81b031916908160001a9053506000610b1e8560026112f5565b610b2990600161130c565b90505b6001811115610ba1576f181899199a1a9b1b9c1cb0b131b232b360811b83600f1660108110610b5d57610b5d61131f565b1a60f81b828281518110610b7357610b7361131f565b60200101906001600160f81b031916908160001a90535060049290921c91610b9a81611335565b9050610b2c565b508115610bcb5760405163e22e27eb60e01b815260048101869052602481018590526044016103f2565b949350505050565b60606000610be083610dd0565b600101905060008167ffffffffffffffff811115610c0057610c0061109a565b6040519080825280601f01601f191660200182016040528015610c2a576020820181803683370190505b5090508181016020015b600019016f181899199a1a9b1b9c1cb0b131b232b360811b600a86061a8153600a8504945084610c3457509392505050565b8080610c7a57506001600160a01b03821615155b15610d3c576000610c8a84610666565b90506001600160a01b03831615801590610cb65750826001600160a01b0316816001600160a01b031614155b8015610cc95750610cc781846105fa565b155b15610cf25760405163a9fbf51f60e01b81526001600160a01b03841660048201526024016103f2565b8115610d3a5783856001600160a01b0316826001600160a01b03167f8c5be1e5ebec7d5bd14f71427d1e84f3dd0314c0f7b2291e5b200ac8c7c3b92560405160405180910390a45b505b5050600090815260046020526040902080546001600160a01b0319166001600160a01b0392909216919091179055565b610d77838383610ea8565b610489576001600160a01b038316610da557604051637e27328960e01b8152600481018290526024016103f2565b60405163177e802f60e01b81526001600160a01b0383166004820152602481018290526044016103f2565b60008072184f03e93ff9f4daa797ed6e38ed64bf6a1f0160401b8310610e0f5772184f03e93ff9f4daa797ed6e38ed64bf6a1f0160401b830492506040015b6d04ee2d6d415b85acef81000000008310610e3b576d04ee2d6d415b85acef8100000000830492506020015b662386f26fc100008310610e5957662386f26fc10000830492506010015b6305f5e1008310610e71576305f5e100830492506008015b6127108310610e8557612710830492506004015b60648310610e97576064830492506002015b600a83106102fc5760010192915050565b60006001600160a01b03831615801590610bcb5750826001600160a01b0316846001600160a01b03161480610ee25750610ee284846105fa565b80610bcb5750506000908152600460205260409020546001600160a01b03908116911614919050565b6001600160e01b03198116811461066357600080fd5b600060208284031215610f3357600080fd5b8135610f3e81610f0b565b9392505050565b60005b83811015610f60578181015183820152602001610f48565b50506000910152565b60008151808452610f81816020860160208601610f45565b601f01601f19169290920160200192915050565b602081526000610f3e6020830184610f69565b600060208284031215610fba57600080fd5b5035919050565b80356001600160a01b0381168114610fd857600080fd5b919050565b60008060408385031215610ff057600080fd5b610ff983610fc1565b946020939093013593505050565b60008060006060848603121561101c57600080fd5b61102584610fc1565b925061103360208501610fc1565b9150604084013590509250925092565b60006020828403121561105557600080fd5b610f3e82610fc1565b6000806040838503121561107157600080fd5b61107a83610fc1565b91506020830135801515811461108f57600080fd5b809150509250929050565b634e487b7160e01b600052604160045260246000fd5b600080600080608085870312156110c657600080fd5b6110cf85610fc1565b93506110dd60208601610fc1565b925060408501359150606085013567ffffffffffffffff8082111561110157600080fd5b818701915087601f83011261111557600080fd5b8135818111156111275761112761109a565b604051601f8201601f19908116603f0116810190838211818310171561114f5761114f61109a565b816040528281528a602084870101111561116857600080fd5b82602086016020830137600060208483010152809550505050505092959194509250565b6000806040838503121561119f57600080fd5b6111a883610fc1565b91506111b660208401610fc1565b90509250929050565b600181811c908216806111d357607f821691505b6020821081036111f357634e487b7160e01b600052602260045260246000fd5b50919050565b6000855161120b818460208a01610f45565b85519083019061121f818360208a01610f45565b692f636f6e74726163742f60b01b9101908152845161124581600a840160208901610f45565b703f746f6b656e5f6964732535422535443d60781b600a9290910191820152835161127781601b840160208801610f45565b01601b019695505050505050565b6001600160a01b03858116825284166020820152604081018390526080606082018190526000906112b890830184610f69565b9695505050505050565b6000602082840312156112d457600080fd5b8151610f3e81610f0b565b634e487b7160e01b600052601160045260246000fd5b80820281158282048414176102fc576102fc6112df565b808201808211156102fc576102fc6112df565b634e487b7160e01b600052603260045260246000fd5b600081611344576113446112df565b50600019019056fe68747470733a2f2f6170692e636f696e6765636b6f2e636f6d2f6170692f76332f6e6674732fa26469706673582212203ba731ac42e9d6bca7bdd7aa444add9d85043e8bb16168960022921cab36e08164736f6c63430008150033",
  "linkReferences": {},
  "deployedLinkReferences": {}
}