{
  "_format": "hh-sol-artifact-1",
  "contractName": "MosaicalSagaBridge",
  "sourceName": "contracts/MosaicalSagaBridge.sol",
  "abi": [
    {
      "inputs": [
        {
          "internalType": "address",
          "name": "_layerZeroEndpoint",
          "type": "address"
        }
      ],
      "stateMutability": "nonpayable",
      "type": "constructor"
    },
    {
      "inputs": [
        {
          "internalType": "address",
          "name": "owner",
          "type": "address"
        }
      ],
      "name": "OwnableInvalidOwner",
      "type": "error"
    },
    {
      "inputs": [
        {
          "internalType": "address",
          "name": "account",
          "type": "address"
        }
      ],
      "name": "OwnableUnauthorizedAccount",
      "type": "error"
    },
    {
      "inputs": [],
      "name": "ReentrancyGuardReentrantCall",
      "type": "error"
    },
    {
      "anonymous": false,
      "inputs": [
        {
          "indexed": true,
          "internalType": "uint256",
          "name": "chainletId",
          "type": "uint256"
        }
      ],
      "name": "ChainletAdded",
      "type": "event"
    },
    {
      "anonymous": false,
      "inputs": [
        {
          "indexed": true,
          "internalType": "address",
          "name": "collection",
          "type": "address"
        },
        {
          "indexed": true,
          "internalType": "uint256",
          "name": "chainletId",
          "type": "uint256"
        },
        {
          "indexed": false,
          "internalType": "address",
          "name": "remoteCollection",
          "type": "address"
        }
      ],
      "name": "CollectionMapped",
      "type": "event"
    },
    {
      "anonymous": false,
      "inputs": [
        {
          "indexed": true,
          "internalType": "address",
          "name": "collection",
          "type": "address"
        },
        {
          "indexed": true,
          "internalType": "uint256",
          "name": "tokenId",
          "type": "uint256"
        },
        {
          "indexed": true,
          "internalType": "uint256",
          "name": "chainletId",
          "type": "uint256"
        },
        {
          "indexed": false,
          "internalType": "address",
          "name": "user",
          "type": "address"
        }
      ],
      "name": "NFTBridgeCompleted",
      "type": "event"
    },
    {
      "anonymous": false,
      "inputs": [
        {
          "indexed": true,
          "internalType": "address",
          "name": "collection",
          "type": "address"
        },
        {
          "indexed": true,
          "internalType": "uint256",
          "name": "tokenId",
          "type": "uint256"
        },
        {
          "indexed": true,
          "internalType": "uint256",
          "name": "chainletId",
          "type": "uint256"
        },
        {
          "indexed": false,
          "internalType": "address",
          "name": "user",
          "type": "address"
        }
      ],
      "name": "NFTBridgeInitiated",
      "type": "event"
    },
    {
      "anonymous": false,
      "inputs": [
        {
          "indexed": true,
          "internalType": "address",
          "name": "previousOwner",
          "type": "address"
        },
        {
          "indexed": true,
          "internalType": "address",
          "name": "newOwner",
          "type": "address"
        }
      ],
      "name": "OwnershipTransferred",
      "type": "event"
    },
    {
      "inputs": [
        {
          "internalType": "uint256",
          "name": "chainletId",
          "type": "uint256"
        }
      ],
      "name": "addSupportedChainlet",
      "outputs": [],
      "stateMutability": "nonpayable",
      "type": "function"
    },
    {
      "inputs": [
        {
          "internalType": "address",
          "name": "collection",
          "type": "address"
        },
        {
          "internalType": "uint256",
          "name": "tokenId",
          "type": "uint256"
        },
        {
          "internalType": "uint256",
          "name": "chainletId",
          "type": "uint256"
        }
      ],
      "name": "bridgeNFT",
      "outputs": [],
      "stateMutability": "payable",
      "type": "function"
    },
    {
      "inputs": [
        {
          "internalType": "address",
          "name": "",
          "type": "address"
        },
        {
          "internalType": "uint256",
          "name": "",
          "type": "uint256"
        }
      ],
      "name": "bridgedNFTs",
      "outputs": [
        {
          "internalType": "bool",
          "name": "",
          "type": "bool"
        }
      ],
      "stateMutability": "view",
      "type": "function"
    },
    {
      "inputs": [],
      "name": "layerZeroEndpoint",
      "outputs": [
        {
          "internalType": "address",
          "name": "",
          "type": "address"
        }
      ],
      "stateMutability": "view",
      "type": "function"
    },
    {
      "inputs": [
        {
          "internalType": "address",
          "name": "localCollection",
          "type": "address"
        },
        {
          "internalType": "uint256",
          "name": "chainletId",
          "type": "uint256"
        },
        {
          "internalType": "address",
          "name": "remoteCollection",
          "type": "address"
        }
      ],
      "name": "mapCollection",
      "outputs": [],
      "stateMutability": "nonpayable",
      "type": "function"
    },
    {
      "inputs": [],
      "name": "owner",
      "outputs": [
        {
          "internalType": "address",
          "name": "",
          "type": "address"
        }
      ],
      "stateMutability": "view",
      "type": "function"
    },
    {
      "inputs": [
        {
          "internalType": "address",
          "name": "collection",
          "type": "address"
        },
        {
          "internalType": "uint256",
          "name": "tokenId",
          "type": "uint256"
        },
        {
          "internalType": "address",
          "name": "recipient",
          "type": "address"
        }
      ],
      "name": "releaseBridgedNFT",
      "outputs": [],
      "stateMutability": "nonpayable",
      "type": "function"
    },
    {
      "inputs": [
        {
          "internalType": "address",
          "name": "",
          "type": "address"
        },
        {
          "internalType": "uint256",
          "name": "",
          "type": "uint256"
        }
      ],
      "name": "remoteMappings",
      "outputs": [
        {
          "internalType": "address",
          "name": "",
          "type": "address"
        }
      ],
      "stateMutability": "view",
      "type": "function"
    },
    {
      "inputs": [],
      "name": "renounceOwnership",
      "outputs": [],
      "stateMutability": "nonpayable",
      "type": "function"
    },
    {
      "inputs": [
        {
          "internalType": "uint256",
          "name": "",
          "type": "uint256"
        }
      ],
      "name": "supportedChainlets",
      "outputs": [
        {
          "internalType": "bool",
          "name": "",
          "type": "bool"
        }
      ],
      "stateMutability": "view",
      "type": "function"
    },
    {
      "inputs": [
        {
          "internalType": "address",
          "name": "newOwner",
          "type": "address"
        }
      ],
      "name": "transferOwnership",
      "outputs": [],
      "stateMutability": "nonpayable",
      "type": "function"
    },
    {
      "inputs": [
        {
          "internalType": "address",
          "name": "_endpoint",
          "type": "address"
        }
      ],
      "name": "updateLayerZeroEndpoint",
      "outputs": [],
      "stateMutability": "nonpayable",
      "type": "function"
    },
    {
      "inputs": [],
      "name": "withdrawFees",
      "outputs": [],
      "stateMutability": "nonpayable",
      "type": "function"
    },
    {
      "stateMutability": "payable",
      "type": "receive"
    }
  ],
  "bytecode": "0x608060405234801561001057600080fd5b50604051610b96380380610b9683398101604081905261002f916100d8565b338061005557604051631e4fbdf760e01b81526000600482015260240160405180910390fd5b61005e81610088565b5060018055600280546001600160a01b0319166001600160a01b0392909216919091179055610108565b600080546001600160a01b038381166001600160a01b0319831681178455604051919092169283917f8be0079c531659141344cd1fd0a4f28419497f9722a3daafe3b4186f6b6457e09190a35050565b6000602082840312156100ea57600080fd5b81516001600160a01b038116811461010157600080fd5b9392505050565b610a7f806101176000396000f3fe6080604052600436106100c65760003560e01c80636535fdc31161007f5780639ad00074116100595780639ad0007414610227578063aae9325d14610247578063d06eeb6214610288578063f2fde38b146102a857600080fd5b80636535fdc3146101c4578063715018a6146101f45780638da5cb5b1461020957600080fd5b806307968db1146100d257806334b852531461010f578063476343ee1461015a57806347f162e5146101715780634a7f931e146101915780634e10618a146101b157600080fd5b366100cd57005b600080fd5b3480156100de57600080fd5b506002546100f2906001600160a01b031681565b6040516001600160a01b0390911681526020015b60405180910390f35b34801561011b57600080fd5b5061014a61012a36600461094c565b600560209081526000928352604080842090915290825290205460ff1681565b6040519015158152602001610106565b34801561016657600080fd5b5061016f6102c8565b005b34801561017d57600080fd5b5061016f61018c366004610978565b61030d565b34801561019d57600080fd5b5061016f6101ac3660046109ba565b610453565b61016f6101bf3660046109de565b61047d565b3480156101d057600080fd5b5061014a6101df366004610a13565b60036020526000908152604090205460ff1681565b34801561020057600080fd5b5061016f610727565b34801561021557600080fd5b506000546001600160a01b03166100f2565b34801561023357600080fd5b5061016f610242366004610a13565b61073b565b34801561025357600080fd5b506100f261026236600461094c565b60046020908152600092835260408084209091529082529020546001600160a01b031681565b34801561029457600080fd5b5061016f6102a3366004610978565b610786565b3480156102b457600080fd5b5061016f6102c33660046109ba565b610855565b6102d0610890565b600080546040516001600160a01b03909116914780156108fc02929091818181858888f1935050505015801561030a573d6000803e3d6000fd5b50565b610315610890565b6001600160a01b038316600090815260056020908152604080832085845290915290205460ff1661037f5760405162461bcd60e51b815260206004820152600f60248201526e139195081b9bdd08189c9a5919d959608a1b60448201526064015b60405180910390fd5b6001600160a01b03838116600081815260056020908152604080832087845290915290819020805460ff19169055516323b872dd60e01b8152306004820152918316602483015260448201849052906323b872dd90606401600060405180830381600087803b1580156103f157600080fd5b505af1158015610405573d6000803e3d6000fd5b50506040516001600160a01b038481168252600093508592508616907f783a45c57a0447511a3ce5791d14505ca17a3c3a7fc7af20eddde7c0237d50ad9060200160405180910390a4505050565b61045b610890565b600280546001600160a01b0319166001600160a01b0392909216919091179055565b6104856108bd565b60008181526003602052604090205460ff166104dc5760405162461bcd60e51b815260206004820152601660248201527510da185a5b9b195d081b9bdd081cdd5c1c1bdc9d195960521b6044820152606401610376565b6001600160a01b038381166000908152600460209081526040808320858452909152902054166105465760405162461bcd60e51b815260206004820152601560248201527410dbdb1b1958dd1a5bdb881b9bdd081b585c1c1959605a1b6044820152606401610376565b6040516331a9108f60e11b81526004810183905233906001600160a01b03851690636352211e90602401602060405180830381865afa15801561058d573d6000803e3d6000fd5b505050506040513d601f19601f820116820180604052508101906105b19190610a2c565b6001600160a01b0316146105f75760405162461bcd60e51b815260206004820152600d60248201526c2737ba1027232a1037bbb732b960991b6044820152606401610376565b662386f26fc1000034101561064e5760405162461bcd60e51b815260206004820152601760248201527f496e73756666696369656e7420627269646765206665650000000000000000006044820152606401610376565b6040516323b872dd60e01b8152336004820152306024820152604481018390526001600160a01b038416906323b872dd90606401600060405180830381600087803b15801561069c57600080fd5b505af11580156106b0573d6000803e3d6000fd5b505050506001600160a01b0383166000818152600560209081526040808320868452825291829020805460ff1916600117905590513381528392859290917f59588713b8922950bb23346fedad25e569f82e2369718a42176c2fb8edbb2f31910160405180910390a461072260018055565b505050565b61072f610890565b61073960006108e7565b565b610743610890565b600081815260036020526040808220805460ff191660011790555182917faba87e9aa9b33301e995747ae88133b02e9cd1a4b1a33c79a9ba9aa1087f7cde91a250565b61078e610890565b60008281526003602052604090205460ff166107e55760405162461bcd60e51b815260206004820152601660248201527510da185a5b9b195d081b9bdd081cdd5c1c1bdc9d195960521b6044820152606401610376565b6001600160a01b03838116600081815260046020908152604080832087845282529182902080546001600160a01b0319169486169485179055905192835284927ff1bbcccd40b20d6e604fa3454465f293c4f2fb490cf723059ffa652ee9fd563f910160405180910390a3505050565b61085d610890565b6001600160a01b03811661088757604051631e4fbdf760e01b815260006004820152602401610376565b61030a816108e7565b6000546001600160a01b031633146107395760405163118cdaa760e01b8152336004820152602401610376565b6002600154036108e057604051633ee5aeb560e01b815260040160405180910390fd5b6002600155565b600080546001600160a01b038381166001600160a01b0319831681178455604051919092169283917f8be0079c531659141344cd1fd0a4f28419497f9722a3daafe3b4186f6b6457e09190a35050565b6001600160a01b038116811461030a57600080fd5b6000806040838503121561095f57600080fd5b823561096a81610937565b946020939093013593505050565b60008060006060848603121561098d57600080fd5b833561099881610937565b92506020840135915060408401356109af81610937565b809150509250925092565b6000602082840312156109cc57600080fd5b81356109d781610937565b9392505050565b6000806000606084860312156109f357600080fd5b83356109fe81610937565b95602085013595506040909401359392505050565b600060208284031215610a2557600080fd5b5035919050565b600060208284031215610a3e57600080fd5b81516109d78161093756fea264697066735822122087f904c1a5bdf8fe42797f02b05b1f0f48795c477d9217e959d41378af8a765964736f6c63430008150033",
  "linkReferences": {},
  "deployedLinkReferences": {}
}