{
  "_format": "hh-sol-artifact-1",
  "contractName": "LoanManagerV3",
  "sourceName": "contracts/LoanManagerV3.sol",
  "abi": [
    {
      "inputs": [
        {
          "internalType": "address",
          "name": "_nftVault",
          "type": "address"
        },
        {
          "internalType": "address",
          "name": "_dpoToken",
          "type": "address"
        }
      ],
      "stateMutability": "nonpayable",
      "type": "constructor"
    },
    {
      "inputs": [
        {
          "internalType": "address",
          "name": "owner",
          "type": "address"
        }
      ],
      "name": "OwnableInvalidOwner",
      "type": "error"
    },
    {
      "inputs": [
        {
          "internalType": "address",
          "name": "account",
          "type": "address"
        }
      ],
      "name": "OwnableUnauthorizedAccount",
      "type": "error"
    },
    {
      "inputs": [],
      "name": "ReentrancyGuardReentrantCall",
      "type": "error"
    },
    {
      "anonymous": false,
      "inputs": [
        {
          "indexed": true,
          "internalType": "address",
          "name": "borrower",
          "type": "address"
        },
        {
          "indexed": true,
          "internalType": "address",
          "name": "collection",
          "type": "address"
        },
        {
          "indexed": true,
          "internalType": "uint256",
          "name": "tokenId",
          "type": "uint256"
        },
        {
          "indexed": false,
          "internalType": "uint256",
          "name": "interest",
          "type": "uint256"
        }
      ],
      "name": "InterestUpdated",
      "type": "event"
    },
    {
      "anonymous": false,
      "inputs": [
        {
          "indexed": true,
          "internalType": "address",
          "name": "borrower",
          "type": "address"
        },
        {
          "indexed": true,
          "internalType": "address",
          "name": "collection",
          "type": "address"
        },
        {
          "indexed": true,
          "internalType": "uint256",
          "name": "tokenId",
          "type": "uint256"
        },
        {
          "indexed": false,
          "internalType": "uint256",
          "name": "amount",
          "type": "uint256"
        }
      ],
      "name": "LoanCreated",
      "type": "event"
    },
    {
      "anonymous": false,
      "inputs": [
        {
          "indexed": true,
          "internalType": "address",
          "name": "borrower",
          "type": "address"
        },
        {
          "indexed": true,
          "internalType": "address",
          "name": "collection",
          "type": "address"
        },
        {
          "indexed": true,
          "internalType": "uint256",
          "name": "tokenId",
          "type": "uint256"
        },
        {
          "indexed": false,
          "internalType": "uint256",
          "name": "amount",
          "type": "uint256"
        }
      ],
      "name": "LoanRepaid",
      "type": "event"
    },
    {
      "anonymous": false,
      "inputs": [
        {
          "indexed": true,
          "internalType": "address",
          "name": "previousOwner",
          "type": "address"
        },
        {
          "indexed": true,
          "internalType": "address",
          "name": "newOwner",
          "type": "address"
        }
      ],
      "name": "OwnershipTransferred",
      "type": "event"
    },
    {
      "inputs": [
        {
          "internalType": "address",
          "name": "collection",
          "type": "address"
        },
        {
          "internalType": "uint256",
          "name": "tokenId",
          "type": "uint256"
        },
        {
          "internalType": "uint256",
          "name": "amount",
          "type": "uint256"
        }
      ],
      "name": "borrow",
      "outputs": [],
      "stateMutability": "nonpayable",
      "type": "function"
    },
    {
      "inputs": [
        {
          "internalType": "address",
          "name": "",
          "type": "address"
        },
        {
          "internalType": "uint256",
          "name": "",
          "type": "uint256"
        }
      ],
      "name": "calculateDynamicInterestRate",
      "outputs": [
        {
          "internalType": "uint256",
          "name": "",
          "type": "uint256"
        }
      ],
      "stateMutability": "pure",
      "type": "function"
    },
    {
      "inputs": [
        {
          "internalType": "address",
          "name": "collection",
          "type": "address"
        }
      ],
      "name": "calculateInterestRate",
      "outputs": [
        {
          "internalType": "uint256",
          "name": "",
          "type": "uint256"
        }
      ],
      "stateMutability": "view",
      "type": "function"
    },
    {
      "inputs": [
        {
          "internalType": "address",
          "name": "",
          "type": "address"
        }
      ],
      "name": "collectionUtilization",
      "outputs": [
        {
          "internalType": "uint256",
          "name": "",
          "type": "uint256"
        }
      ],
      "stateMutability": "view",
      "type": "function"
    },
    {
      "inputs": [
        {
          "internalType": "address",
          "name": "collection",
          "type": "address"
        },
        {
          "internalType": "uint256",
          "name": "tokenId",
          "type": "uint256"
        },
        {
          "internalType": "uint256",
          "name": "amount",
          "type": "uint256"
        },
        {
          "internalType": "uint256",
          "name": "duration",
          "type": "uint256"
        }
      ],
      "name": "createLoan",
      "outputs": [
        {
          "internalType": "uint256",
          "name": "",
          "type": "uint256"
        }
      ],
      "stateMutability": "nonpayable",
      "type": "function"
    },
    {
      "inputs": [],
      "name": "dpoToken",
      "outputs": [
        {
          "internalType": "contract IDPOToken",
          "name": "",
          "type": "address"
        }
      ],
      "stateMutability": "view",
      "type": "function"
    },
    {
      "inputs": [
        {
          "internalType": "address",
          "name": "borrower",
          "type": "address"
        },
        {
          "internalType": "address",
          "name": "collection",
          "type": "address"
        },
        {
          "internalType": "uint256",
          "name": "tokenId",
          "type": "uint256"
        }
      ],
      "name": "getAccruedInterest",
      "outputs": [
        {
          "internalType": "uint256",
          "name": "",
          "type": "uint256"
        }
      ],
      "stateMutability": "view",
      "type": "function"
    },
    {
      "inputs": [
        {
          "internalType": "address",
          "name": "",
          "type": "address"
        }
      ],
      "name": "interestRateModels",
      "outputs": [
        {
          "internalType": "uint256",
          "name": "baseRate",
          "type": "uint256"
        },
        {
          "internalType": "uint256",
          "name": "slope1",
          "type": "uint256"
        },
        {
          "internalType": "uint256",
          "name": "slope2",
          "type": "uint256"
        },
        {
          "internalType": "uint256",
          "name": "optimalUtilization",
          "type": "uint256"
        }
      ],
      "stateMutability": "view",
      "type": "function"
    },
    {
      "inputs": [
        {
          "internalType": "address",
          "name": "",
          "type": "address"
        },
        {
          "internalType": "address",
          "name": "",
          "type": "address"
        },
        {
          "internalType": "uint256",
          "name": "",
          "type": "uint256"
        }
      ],
      "name": "loanData",
      "outputs": [
        {
          "internalType": "uint256",
          "name": "principal",
          "type": "uint256"
        },
        {
          "internalType": "uint256",
          "name": "accruedInterest",
          "type": "uint256"
        },
        {
          "internalType": "uint256",
          "name": "startTime",
          "type": "uint256"
        },
        {
          "internalType": "uint256",
          "name": "lastUpdateTime",
          "type": "uint256"
        },
        {
          "internalType": "uint256",
          "name": "interestRate",
          "type": "uint256"
        },
        {
          "internalType": "bool",
          "name": "isActive",
          "type": "bool"
        }
      ],
      "stateMutability": "view",
      "type": "function"
    },
    {
      "inputs": [
        {
          "internalType": "address",
          "name": "",
          "type": "address"
        },
        {
          "internalType": "address",
          "name": "",
          "type": "address"
        },
        {
          "internalType": "uint256",
          "name": "",
          "type": "uint256"
        }
      ],
      "name": "loanHealthFactors",
      "outputs": [
        {
          "internalType": "uint256",
          "name": "",
          "type": "uint256"
        }
      ],
      "stateMutability": "view",
      "type": "function"
    },
    {
      "inputs": [
        {
          "internalType": "uint256",
          "name": "",
          "type": "uint256"
        }
      ],
      "name": "loans",
      "outputs": [
        {
          "internalType": "uint256",
          "name": "id",
          "type": "uint256"
        },
        {
          "internalType": "address",
          "name": "borrower",
          "type": "address"
        },
        {
          "internalType": "address",
          "name": "collection",
          "type": "address"
        },
        {
          "internalType": "uint256",
          "name": "tokenId",
          "type": "uint256"
        },
        {
          "internalType": "uint256",
          "name": "amount",
          "type": "uint256"
        },
        {
          "internalType": "uint256",
          "name": "interestRate",
          "type": "uint256"
        },
        {
          "internalType": "uint256",
          "name": "startTime",
          "type": "uint256"
        },
        {
          "internalType": "uint256",
          "name": "duration",
          "type": "uint256"
        },
        {
          "internalType": "bool",
          "name": "isActive",
          "type": "bool"
        },
        {
          "internalType": "bool",
          "name": "isRepaid",
          "type": "bool"
        }
      ],
      "stateMutability": "view",
      "type": "function"
    },
    {
      "inputs": [],
      "name": "nextLoanId",
      "outputs": [
        {
          "internalType": "uint256",
          "name": "",
          "type": "uint256"
        }
      ],
      "stateMutability": "view",
      "type": "function"
    },
    {
      "inputs": [
        {
          "internalType": "address",
          "name": "",
          "type": "address"
        },
        {
          "internalType": "address",
          "name": "",
          "type": "address"
        },
        {
          "internalType": "uint256",
          "name": "",
          "type": "uint256"
        }
      ],
      "name": "nftToLoan",
      "outputs": [
        {
          "internalType": "uint256",
          "name": "",
          "type": "uint256"
        }
      ],
      "stateMutability": "view",
      "type": "function"
    },
    {
      "inputs": [],
      "name": "nftVault",
      "outputs": [
        {
          "internalType": "contract INFTVault",
          "name": "",
          "type": "address"
        }
      ],
      "stateMutability": "view",
      "type": "function"
    },
    {
      "inputs": [],
      "name": "owner",
      "outputs": [
        {
          "internalType": "address",
          "name": "",
          "type": "address"
        }
      ],
      "stateMutability": "view",
      "type": "function"
    },
    {
      "inputs": [],
      "name": "renounceOwnership",
      "outputs": [],
      "stateMutability": "nonpayable",
      "type": "function"
    },
    {
      "inputs": [
        {
          "internalType": "address",
          "name": "collection",
          "type": "address"
        },
        {
          "internalType": "uint256",
          "name": "tokenId",
          "type": "uint256"
        }
      ],
      "name": "repay",
      "outputs": [],
      "stateMutability": "payable",
      "type": "function"
    },
    {
      "inputs": [
        {
          "internalType": "uint256",
          "name": "loanId",
          "type": "uint256"
        }
      ],
      "name": "repayLoan",
      "outputs": [],
      "stateMutability": "payable",
      "type": "function"
    },
    {
      "inputs": [
        {
          "internalType": "address",
          "name": "collection",
          "type": "address"
        },
        {
          "internalType": "uint256",
          "name": "utilization",
          "type": "uint256"
        }
      ],
      "name": "setCollectionUtilization",
      "outputs": [],
      "stateMutability": "nonpayable",
      "type": "function"
    },
    {
      "inputs": [
        {
          "internalType": "address",
          "name": "collection",
          "type": "address"
        },
        {
          "internalType": "uint256",
          "name": "baseRate",
          "type": "uint256"
        },
        {
          "internalType": "uint256",
          "name": "slope1",
          "type": "uint256"
        },
        {
          "internalType": "uint256",
          "name": "slope2",
          "type": "uint256"
        },
        {
          "internalType": "uint256",
          "name": "optimalUtilization",
          "type": "uint256"
        }
      ],
      "name": "setInterestRateModel",
      "outputs": [],
      "stateMutability": "nonpayable",
      "type": "function"
    },
    {
      "inputs": [
        {
          "internalType": "address",
          "name": "newOwner",
          "type": "address"
        }
      ],
      "name": "transferOwnership",
      "outputs": [],
      "stateMutability": "nonpayable",
      "type": "function"
    },
    {
      "inputs": [
        {
          "internalType": "address",
          "name": "borrower",
          "type": "address"
        },
        {
          "internalType": "address",
          "name": "collection",
          "type": "address"
        },
        {
          "internalType": "uint256",
          "name": "tokenId",
          "type": "uint256"
        }
      ],
      "name": "updateLoanInterest",
      "outputs": [],
      "stateMutability": "nonpayable",
      "type": "function"
    },
    {
      "stateMutability": "payable",
      "type": "receive"
    }
  ],
  "bytecode": "0x60806040523480156200001157600080fd5b506040516200191e3803806200191e83398101604081905262000034916200010a565b33806200005b57604051631e4fbdf760e01b81526000600482015260240160405180910390fd5b62000066816200009d565b5060018055600280546001600160a01b039384166001600160a01b0319918216179091556003805492909316911617905562000142565b600080546001600160a01b038381166001600160a01b0319831681178455604051919092169283917f8be0079c531659141344cd1fd0a4f28419497f9722a3daafe3b4186f6b6457e09190a35050565b80516001600160a01b03811681146200010557600080fd5b919050565b600080604083850312156200011e57600080fd5b6200012983620000ed565b91506200013960208401620000ed565b90509250929050565b6117cc80620001526000396000f3fe6080604052600436106101395760003560e01c8063a5078aa6116100ab578063c1bce0b71161006f578063c1bce0b7146103fd578063c2127d9c1461041d578063d880e71c1461047f578063dbfb7d811461049f578063e1ec3c68146104bf578063f2fde38b1461059757600080fd5b8063a5078aa61461033f578063a9df971a1461037d578063ab7b1c891461039d578063adf80673146103b0578063c0d18843146103dd57600080fd5b80636ff45934116100fd5780636ff459341461027e578063715018a61461029e57806378c07d68146102b357806387c51459146102eb5780638da5cb5b146103015780639e8101c61461031f57600080fd5b806303f78a9a146101455780630e34abd1146101675780631ce15c5f1461018757806322867d781461021f5780634c96df051461023257600080fd5b3661014057005b600080fd5b34801561015157600080fd5b506101656101603660046114ff565b6105b7565b005b34801561017357600080fd5b50610165610182366004611540565b6106a9565b34801561019357600080fd5b506101eb6101a23660046114ff565b6007602090815260009384526040808520825292845282842090528252902080546001820154600283015460038401546004850154600590950154939492939192909160ff1686565b6040805196875260208701959095529385019290925260608401526080830152151560a082015260c0015b60405180910390f35b61016561022d366004611540565b6106cd565b34801561023e57600080fd5b5061027061024d3660046114ff565b600a60209081526000938452604080852082529284528284209052825290205481565b604051908152602001610216565b34801561028a57600080fd5b5061016561029936600461156c565b6108a8565b3480156102aa57600080fd5b50610165610905565b3480156102bf57600080fd5b506003546102d3906001600160a01b031681565b6040516001600160a01b039091168152602001610216565b3480156102f757600080fd5b5061027060045481565b34801561030d57600080fd5b506000546001600160a01b03166102d3565b34801561032b57600080fd5b5061027061033a3660046115b0565b610919565b34801561034b57600080fd5b5061027061035a3660046114ff565b600860209081526000938452604080852082529284528284209052825290205481565b34801561038957600080fd5b50610270610398366004611540565b610bbd565b6101656103ab3660046115eb565b610bc7565b3480156103bc57600080fd5b506102706103cb366004611604565b60066020526000908152604090205481565b3480156103e957600080fd5b506102706103f8366004611604565b610d1d565b34801561040957600080fd5b50610165610418366004611621565b610e21565b34801561042957600080fd5b5061045f610438366004611604565b60056020526000908152604090208054600182015460028301546003909301549192909184565b604080519485526020850193909352918301526060820152608001610216565b34801561048b57600080fd5b5061027061049a3660046114ff565b611317565b3480156104ab57600080fd5b506002546102d3906001600160a01b031681565b3480156104cb57600080fd5b5061053d6104da3660046115eb565b60096020526000908152604090208054600182015460028301546003840154600485015460058601546006870154600788015460089098015496976001600160a01b03968716979690951695939492939192909160ff808216916101009004168a565b604080519a8b526001600160a01b03998a1660208c015297909816968901969096526060880194909452608087019290925260a086015260c085015260e08401521515610100830152151561012082015261014001610216565b3480156105a357600080fd5b506101656105b2366004611604565b611405565b6001600160a01b0380841660009081526007602090815260408083209386168352928152828220848352905220600581015460ff166105f65750505050565b6000816003015442610608919061166c565b9050600064496cebb8008284600401548560000154610627919061167f565b610631919061167f565b61063b9190611696565b90508083600101600082825461065191906116b8565b909155505042600384015560405181815284906001600160a01b0380881691908916907f8abebe568380681ab8a551a5342d2b094ea78d85b0289458a793967d4d5465329060200160405180910390a4505050505050565b6106b1611443565b6001600160a01b03909116600090815260066020526040902055565b6106d5611470565b3360009081526007602090815260408083206001600160a01b0386168452825280832084845290915290206005015460ff166107495760405162461bcd60e51b815260206004820152600e60248201526d27379030b1ba34bb32903637b0b760911b60448201526064015b60405180910390fd5b6107543383836105b7565b3360009081526007602090815260408083206001600160a01b0386168452825280832084845290915281206001810154815491929161079391906116b8565b9050803410156107f55760405162461bcd60e51b815260206004820152602760248201527f496e73756666696369656e74207061796d656e7420746f20636f7665722066756044820152661b1b081919589d60ca1b6064820152608401610740565b60058201805460ff19169055600080835560018301553481101561084b57336108fc610821833461166c565b6040518115909202916000818181858888f19350505050158015610849573d6000803e3d6000fd5b505b82846001600160a01b0316336001600160a01b03167fa6f6d5e50bc84f153a0d6a9f9b37780433f92dc32d7e10f975ab3831c36898fa8460405161089191815260200190565b60405180910390a450506108a460018055565b5050565b6108b0611443565b604080516080810182529485526020808601948552858201938452606086019283526001600160a01b039096166000908152600590965290942092518355905160018301555160028201559051600390910155565b61090d611443565b610917600061149a565b565b60008083116109605760405162461bcd60e51b8152602060048201526013602482015272125b9d985b1a59081b1bd85b88185b5bdd5b9d606a1b6044820152606401610740565b600082116109a35760405162461bcd60e51b815260206004820152601060248201526f24b73b30b634b210323ab930ba34b7b760811b6044820152606401610740565b60048054600091826109b4836116cb565b919050559050604051806101400160405280828152602001336001600160a01b03168152602001876001600160a01b031681526020018681526020018581526020016101f4815260200142815260200184815260200160011515815260200160001515815250600960008381526020019081526020016000206000820151816000015560208201518160010160006101000a8154816001600160a01b0302191690836001600160a01b0316021790555060408201518160020160006101000a8154816001600160a01b0302191690836001600160a01b03160217905550606082015181600301556080820151816004015560a0820151816005015560c0820151816006015560e082015181600701556101008201518160080160006101000a81548160ff0219169083151502179055506101208201518160080160016101000a81548160ff02191690831515021790555090505080600a6000336001600160a01b03166001600160a01b031681526020019081526020016000206000886001600160a01b03166001600160a01b0316815260200190815260200160002060008781526020019081526020016000208190555084866001600160a01b0316336001600160a01b03167f4ff1bde1d2bfa65462ed9c225b57b8446fe13abb1e46a9aa6161768bf59ed6d787604051610bac91815260200190565b60405180910390a495945050505050565b6101f45b92915050565b6000818152600960205260409020600881015460ff16610c1b5760405162461bcd60e51b815260206004820152600f60248201526e4c6f616e206e6f742061637469766560881b6044820152606401610740565b60018101546001600160a01b03163314610c665760405162461bcd60e51b815260206004820152600c60248201526b2737ba103137b93937bbb2b960a11b6044820152606401610740565b8060040154341015610cb15760405162461bcd60e51b8152602060048201526014602482015273125b9cdd59999a58da595b9d081c185e5b595b9d60621b6044820152606401610740565b60088101805461ffff191661010017905560038101546002820154600183015460048401546040519081526001600160a01b0392831692909116907fa6f6d5e50bc84f153a0d6a9f9b37780433f92dc32d7e10f975ab3831c36898fa9060200160405180910390a45050565b6001600160a01b038116600090815260056020908152604080832081516080810183528154808252600183015494820194909452600282015492810192909252600301546060820152908203610d7757506101f492915050565b6001600160a01b03831660009081526006602052604090205460608201518111610dcc57612710826020015182610dae919061167f565b610db89190611696565b8251610dc491906116b8565b949350505050565b6000826060015182610dde919061166c565b9050612710836040015182610df3919061167f565b610dfd9190611696565b60208401518451610e0e91906116b8565b610e1891906116b8565b95945050505050565b610e29611470565b60025460405163d6d6817760e01b81526001600160a01b038581166004830152602482018590523392169063d6d6817790604401606060405180830381865afa158015610e7a573d6000803e3d6000fd5b505050506040513d601f19601f82011682018060405250810190610e9e91906116e4565b516001600160a01b031614610ee45760405162461bcd60e51b815260206004820152600c60248201526b139bdd081e5bdd5c8813919560a21b6044820152606401610740565b3360009081526007602090815260408083206001600160a01b0387168452825280832085845290915290206005015460ff1615610f585760405162461bcd60e51b8152602060048201526012602482015271416374697665206c6f616e2065786973747360701b6044820152606401610740565b600254604080516307dc0d1d60e41b815290516000926001600160a01b031691637dc0d1d09160048083019260209291908290030181865afa158015610fa2573d6000803e3d6000fd5b505050506040513d601f19601f82011682018060405250810190610fc69190611760565b6040516330f8853f60e21b81526001600160a01b038681166004830152919091169063c3e214fc90602401602060405180830381865afa15801561100e573d6000803e3d6000fd5b505050506040513d601f19601f82011682018060405250810190611032919061177d565b60025460405163708be43d60e01b81526001600160a01b038781166004830152602482018790529293506000929091169063708be43d90604401602060405180830381865afa158015611089573d6000803e3d6000fd5b505050506040513d601f19601f820116820180604052508101906110ad919061177d565b9050600060646110bd838561167f565b6110c79190611696565b90508084111561110b5760405162461bcd60e51b815260206004820152600f60248201526e22bc31b2b2b2399036b0bc10262a2b60891b6044820152606401610740565b834710156111545760405162461bcd60e51b8152602060048201526016602482015275496e73756666696369656e74206c697175696469747960501b6044820152606401610740565b6040518060c001604052808581526020016000815260200142815260200142815260200161118188610d1d565b8152600160209182018190523360008181526007845260408082206001600160a01b038d81168085529187528284208d855287528284208851815588880151968101969096558783015160028701556060880151600380880191909155608089015160048089019190915560a0909901516005909701805460ff1916971515979097179096558484526008875282842082855287528284208d855290965291819020613a989055925492516338fbe0c360e01b8152948501526024840189905260448401526064830187905216906338fbe0c390608401600060405180830381600087803b15801561127257600080fd5b505af1158015611286573d6000803e3d6000fd5b505060405133925086156108fc02915086906000818181858888f193505050501580156112b7573d6000803e3d6000fd5b5084866001600160a01b0316336001600160a01b03167f4ff1bde1d2bfa65462ed9c225b57b8446fe13abb1e46a9aa6161768bf59ed6d7876040516112fe91815260200190565b60405180910390a450505061131260018055565b505050565b6001600160a01b03808416600090815260076020908152604080832093861683529281528282208483528152828220835160c08101855281548152600182015492810192909252600281015493820193909352600383015460608201526004830154608082015260059092015460ff16151560a083018190529091906113a15760009150506113fe565b60008160600151426113b3919061166c565b9050600064496cebb80082846080015185600001516113d2919061167f565b6113dc919061167f565b6113e69190611696565b90508083602001516113f891906116b8565b93505050505b9392505050565b61140d611443565b6001600160a01b03811661143757604051631e4fbdf760e01b815260006004820152602401610740565b6114408161149a565b50565b6000546001600160a01b031633146109175760405163118cdaa760e01b8152336004820152602401610740565b60026001540361149357604051633ee5aeb560e01b815260040160405180910390fd5b6002600155565b600080546001600160a01b038381166001600160a01b0319831681178455604051919092169283917f8be0079c531659141344cd1fd0a4f28419497f9722a3daafe3b4186f6b6457e09190a35050565b6001600160a01b038116811461144057600080fd5b60008060006060848603121561151457600080fd5b833561151f816114ea565b9250602084013561152f816114ea565b929592945050506040919091013590565b6000806040838503121561155357600080fd5b823561155e816114ea565b946020939093013593505050565b600080600080600060a0868803121561158457600080fd5b853561158f816114ea565b97602087013597506040870135966060810135965060800135945092505050565b600080600080608085870312156115c657600080fd5b84356115d1816114ea565b966020860135965060408601359560600135945092505050565b6000602082840312156115fd57600080fd5b5035919050565b60006020828403121561161657600080fd5b81356113fe816114ea565b60008060006060848603121561163657600080fd5b8335611641816114ea565b95602085013595506040909401359392505050565b634e487b7160e01b600052601160045260246000fd5b81810381811115610bc157610bc1611656565b8082028115828204841417610bc157610bc1611656565b6000826116b357634e487b7160e01b600052601260045260246000fd5b500490565b80820180821115610bc157610bc1611656565b6000600182016116dd576116dd611656565b5060010190565b6000606082840312156116f657600080fd5b6040516060810181811067ffffffffffffffff8211171561172757634e487b7160e01b600052604160045260246000fd5b6040528251611735816114ea565b8152602083810151908201526040830151801515811461175457600080fd5b60408201529392505050565b60006020828403121561177257600080fd5b81516113fe816114ea565b60006020828403121561178f57600080fd5b505191905056fea264697066735822122054289bed6094ff40c9bd83228e74cb9178e99d464377ae9bee1b0338ba758b4064736f6c63430008150033",
  "linkReferences": {},
  "deployedLinkReferences": {}
}