{
  "_format": "hh-sol-artifact-1",
  "contractName": "DPOTokenV3",
  "sourceName": "contracts/DPOTokenV3.sol",
  "abi": [
    {
      "inputs": [],
      "stateMutability": "nonpayable",
      "type": "constructor"
    },
    {
      "inputs": [
        {
          "internalType": "address",
          "name": "spender",
          "type": "address"
        },
        {
          "internalType": "uint256",
          "name": "allowance",
          "type": "uint256"
        },
        {
          "internalType": "uint256",
          "name": "needed",
          "type": "uint256"
        }
      ],
      "name": "ERC20InsufficientAllowance",
      "type": "error"
    },
    {
      "inputs": [
        {
          "internalType": "address",
          "name": "sender",
          "type": "address"
        },
        {
          "internalType": "uint256",
          "name": "balance",
          "type": "uint256"
        },
        {
          "internalType": "uint256",
          "name": "needed",
          "type": "uint256"
        }
      ],
      "name": "ERC20InsufficientBalance",
      "type": "error"
    },
    {
      "inputs": [
        {
          "internalType": "address",
          "name": "approver",
          "type": "address"
        }
      ],
      "name": "ERC20InvalidApprover",
      "type": "error"
    },
    {
      "inputs": [
        {
          "internalType": "address",
          "name": "receiver",
          "type": "address"
        }
      ],
      "name": "ERC20InvalidReceiver",
      "type": "error"
    },
    {
      "inputs": [
        {
          "internalType": "address",
          "name": "sender",
          "type": "address"
        }
      ],
      "name": "ERC20InvalidSender",
      "type": "error"
    },
    {
      "inputs": [
        {
          "internalType": "address",
          "name": "spender",
          "type": "address"
        }
      ],
      "name": "ERC20InvalidSpender",
      "type": "error"
    },
    {
      "inputs": [
        {
          "internalType": "address",
          "name": "owner",
          "type": "address"
        }
      ],
      "name": "OwnableInvalidOwner",
      "type": "error"
    },
    {
      "inputs": [
        {
          "internalType": "address",
          "name": "account",
          "type": "address"
        }
      ],
      "name": "OwnableUnauthorizedAccount",
      "type": "error"
    },
    {
      "anonymous": false,
      "inputs": [
        {
          "indexed": true,
          "internalType": "address",
          "name": "owner",
          "type": "address"
        },
        {
          "indexed": true,
          "internalType": "address",
          "name": "spender",
          "type": "address"
        },
        {
          "indexed": false,
          "internalType": "uint256",
          "name": "value",
          "type": "uint256"
        }
      ],
      "name": "Approval",
      "type": "event"
    },
    {
      "anonymous": false,
      "inputs": [
        {
          "indexed": true,
          "internalType": "address",
          "name": "user",
          "type": "address"
        },
        {
          "indexed": true,
          "internalType": "address",
          "name": "collection",
          "type": "address"
        },
        {
          "indexed": true,
          "internalType": "uint256",
          "name": "tokenId",
          "type": "uint256"
        },
        {
          "indexed": false,
          "internalType": "uint256",
          "name": "amount",
          "type": "uint256"
        }
      ],
      "name": "InterestClaimed",
      "type": "event"
    },
    {
      "anonymous": false,
      "inputs": [
        {
          "indexed": true,
          "internalType": "address",
          "name": "collection",
          "type": "address"
        },
        {
          "indexed": true,
          "internalType": "uint256",
          "name": "tokenId",
          "type": "uint256"
        },
        {
          "indexed": true,
          "internalType": "address",
          "name": "holder",
          "type": "address"
        },
        {
          "indexed": false,
          "internalType": "uint256",
          "name": "amount",
          "type": "uint256"
        }
      ],
      "name": "InterestDistributed",
      "type": "event"
    },
    {
      "anonymous": false,
      "inputs": [
        {
          "indexed": true,
          "internalType": "address",
          "name": "minter",
          "type": "address"
        }
      ],
      "name": "MinterAuthorized",
      "type": "event"
    },
    {
      "anonymous": false,
      "inputs": [
        {
          "indexed": true,
          "internalType": "address",
          "name": "user",
          "type": "address"
        },
        {
          "indexed": true,
          "internalType": "address",
          "name": "collection",
          "type": "address"
        },
        {
          "indexed": true,
          "internalType": "uint256",
          "name": "tokenId",
          "type": "uint256"
        },
        {
          "indexed": false,
          "internalType": "bool",
          "name": "isBuy",
          "type": "bool"
        },
        {
          "indexed": false,
          "internalType": "uint256",
          "name": "amount",
          "type": "uint256"
        },
        {
          "indexed": false,
          "internalType": "uint256",
          "name": "price",
          "type": "uint256"
        }
      ],
      "name": "OrderPlaced",
      "type": "event"
    },
    {
      "anonymous": false,
      "inputs": [
        {
          "indexed": true,
          "internalType": "address",
          "name": "previousOwner",
          "type": "address"
        },
        {
          "indexed": true,
          "internalType": "address",
          "name": "newOwner",
          "type": "address"
        }
      ],
      "name": "OwnershipTransferred",
      "type": "event"
    },
    {
      "anonymous": false,
      "inputs": [
        {
          "indexed": true,
          "internalType": "address",
          "name": "to",
          "type": "address"
        },
        {
          "indexed": false,
          "internalType": "uint256",
          "name": "amount",
          "type": "uint256"
        }
      ],
      "name": "TokensMinted",
      "type": "event"
    },
    {
      "anonymous": false,
      "inputs": [
        {
          "indexed": true,
          "internalType": "address",
          "name": "buyer",
          "type": "address"
        },
        {
          "indexed": true,
          "internalType": "address",
          "name": "seller",
          "type": "address"
        },
        {
          "indexed": true,
          "internalType": "address",
          "name": "collection",
          "type": "address"
        },
        {
          "indexed": false,
          "internalType": "uint256",
          "name": "tokenId",
          "type": "uint256"
        },
        {
          "indexed": false,
          "internalType": "uint256",
          "name": "amount",
          "type": "uint256"
        },
        {
          "indexed": false,
          "internalType": "uint256",
          "name": "price",
          "type": "uint256"
        }
      ],
      "name": "TradeExecuted",
      "type": "event"
    },
    {
      "anonymous": false,
      "inputs": [
        {
          "indexed": true,
          "internalType": "address",
          "name": "from",
          "type": "address"
        },
        {
          "indexed": true,
          "internalType": "address",
          "name": "to",
          "type": "address"
        },
        {
          "indexed": false,
          "internalType": "uint256",
          "name": "value",
          "type": "uint256"
        }
      ],
      "name": "Transfer",
      "type": "event"
    },
    {
      "inputs": [
        {
          "internalType": "address",
          "name": "owner",
          "type": "address"
        },
        {
          "internalType": "address",
          "name": "spender",
          "type": "address"
        }
      ],
      "name": "allowance",
      "outputs": [
        {
          "internalType": "uint256",
          "name": "",
          "type": "uint256"
        }
      ],
      "stateMutability": "view",
      "type": "function"
    },
    {
      "inputs": [
        {
          "internalType": "address",
          "name": "spender",
          "type": "address"
        },
        {
          "internalType": "uint256",
          "name": "value",
          "type": "uint256"
        }
      ],
      "name": "approve",
      "outputs": [
        {
          "internalType": "bool",
          "name": "",
          "type": "bool"
        }
      ],
      "stateMutability": "nonpayable",
      "type": "function"
    },
    {
      "inputs": [
        {
          "internalType": "address",
          "name": "minter",
          "type": "address"
        }
      ],
      "name": "authorizeMinter",
      "outputs": [],
      "stateMutability": "nonpayable",
      "type": "function"
    },
    {
      "inputs": [
        {
          "internalType": "address",
          "name": "",
          "type": "address"
        }
      ],
      "name": "authorizedMinters",
      "outputs": [
        {
          "internalType": "bool",
          "name": "",
          "type": "bool"
        }
      ],
      "stateMutability": "view",
      "type": "function"
    },
    {
      "inputs": [
        {
          "internalType": "address",
          "name": "account",
          "type": "address"
        }
      ],
      "name": "balanceOf",
      "outputs": [
        {
          "internalType": "uint256",
          "name": "",
          "type": "uint256"
        }
      ],
      "stateMutability": "view",
      "type": "function"
    },
    {
      "inputs": [
        {
          "internalType": "uint256",
          "name": "amount",
          "type": "uint256"
        }
      ],
      "name": "burn",
      "outputs": [],
      "stateMutability": "nonpayable",
      "type": "function"
    },
    {
      "inputs": [
        {
          "internalType": "address",
          "name": "user",
          "type": "address"
        },
        {
          "internalType": "address",
          "name": "collection",
          "type": "address"
        },
        {
          "internalType": "uint256",
          "name": "tokenId",
          "type": "uint256"
        }
      ],
      "name": "calculatePendingInterest",
      "outputs": [
        {
          "internalType": "uint256",
          "name": "",
          "type": "uint256"
        }
      ],
      "stateMutability": "view",
      "type": "function"
    },
    {
      "inputs": [
        {
          "internalType": "address",
          "name": "collection",
          "type": "address"
        },
        {
          "internalType": "uint256",
          "name": "tokenId",
          "type": "uint256"
        }
      ],
      "name": "claimInterest",
      "outputs": [],
      "stateMutability": "nonpayable",
      "type": "function"
    },
    {
      "inputs": [
        {
          "internalType": "address",
          "name": "",
          "type": "address"
        },
        {
          "internalType": "uint256",
          "name": "",
          "type": "uint256"
        },
        {
          "internalType": "address",
          "name": "",
          "type": "address"
        }
      ],
      "name": "claimableInterest",
      "outputs": [
        {
          "internalType": "uint256",
          "name": "",
          "type": "uint256"
        }
      ],
      "stateMutability": "view",
      "type": "function"
    },
    {
      "inputs": [],
      "name": "decimals",
      "outputs": [
        {
          "internalType": "uint8",
          "name": "",
          "type": "uint8"
        }
      ],
      "stateMutability": "view",
      "type": "function"
    },
    {
      "inputs": [
        {
          "internalType": "address",
          "name": "collection",
          "type": "address"
        },
        {
          "internalType": "uint256",
          "name": "tokenId",
          "type": "uint256"
        },
        {
          "internalType": "address",
          "name": "holder",
          "type": "address"
        },
        {
          "internalType": "uint256",
          "name": "amount",
          "type": "uint256"
        }
      ],
      "name": "distributeInterest",
      "outputs": [],
      "stateMutability": "nonpayable",
      "type": "function"
    },
    {
      "inputs": [
        {
          "internalType": "address",
          "name": "to",
          "type": "address"
        },
        {
          "internalType": "uint256",
          "name": "amount",
          "type": "uint256"
        }
      ],
      "name": "mint",
      "outputs": [],
      "stateMutability": "nonpayable",
      "type": "function"
    },
    {
      "inputs": [
        {
          "internalType": "address",
          "name": "collection",
          "type": "address"
        },
        {
          "internalType": "uint256",
          "name": "tokenId",
          "type": "uint256"
        },
        {
          "internalType": "address",
          "name": "borrower",
          "type": "address"
        },
        {
          "internalType": "uint256",
          "name": "amount",
          "type": "uint256"
        }
      ],
      "name": "mintOnLoan",
      "outputs": [],
      "stateMutability": "nonpayable",
      "type": "function"
    },
    {
      "inputs": [],
      "name": "name",
      "outputs": [
        {
          "internalType": "string",
          "name": "",
          "type": "string"
        }
      ],
      "stateMutability": "view",
      "type": "function"
    },
    {
      "inputs": [
        {
          "internalType": "address",
          "name": "",
          "type": "address"
        },
        {
          "internalType": "uint256",
          "name": "",
          "type": "uint256"
        }
      ],
      "name": "nftTokenSupply",
      "outputs": [
        {
          "internalType": "uint256",
          "name": "",
          "type": "uint256"
        }
      ],
      "stateMutability": "view",
      "type": "function"
    },
    {
      "inputs": [],
      "name": "owner",
      "outputs": [
        {
          "internalType": "address",
          "name": "",
          "type": "address"
        }
      ],
      "stateMutability": "view",
      "type": "function"
    },
    {
      "inputs": [
        {
          "internalType": "address",
          "name": "collection",
          "type": "address"
        },
        {
          "internalType": "uint256",
          "name": "tokenId",
          "type": "uint256"
        },
        {
          "internalType": "uint256",
          "name": "amount",
          "type": "uint256"
        },
        {
          "internalType": "uint256",
          "name": "price",
          "type": "uint256"
        }
      ],
      "name": "placeBuyOrder",
      "outputs": [],
      "stateMutability": "payable",
      "type": "function"
    },
    {
      "inputs": [
        {
          "internalType": "address",
          "name": "collection",
          "type": "address"
        },
        {
          "internalType": "uint256",
          "name": "tokenId",
          "type": "uint256"
        },
        {
          "internalType": "uint256",
          "name": "amount",
          "type": "uint256"
        },
        {
          "internalType": "uint256",
          "name": "price",
          "type": "uint256"
        }
      ],
      "name": "placeSellOrder",
      "outputs": [],
      "stateMutability": "nonpayable",
      "type": "function"
    },
    {
      "inputs": [],
      "name": "renounceOwnership",
      "outputs": [],
      "stateMutability": "nonpayable",
      "type": "function"
    },
    {
      "inputs": [],
      "name": "symbol",
      "outputs": [
        {
          "internalType": "string",
          "name": "",
          "type": "string"
        }
      ],
      "stateMutability": "view",
      "type": "function"
    },
    {
      "inputs": [
        {
          "internalType": "address",
          "name": "",
          "type": "address"
        },
        {
          "internalType": "uint256",
          "name": "",
          "type": "uint256"
        },
        {
          "internalType": "address",
          "name": "",
          "type": "address"
        }
      ],
      "name": "tokenHoldings",
      "outputs": [
        {
          "internalType": "uint256",
          "name": "",
          "type": "uint256"
        }
      ],
      "stateMutability": "view",
      "type": "function"
    },
    {
      "inputs": [],
      "name": "totalSupply",
      "outputs": [
        {
          "internalType": "uint256",
          "name": "",
          "type": "uint256"
        }
      ],
      "stateMutability": "view",
      "type": "function"
    },
    {
      "inputs": [
        {
          "internalType": "address",
          "name": "to",
          "type": "address"
        },
        {
          "internalType": "uint256",
          "name": "value",
          "type": "uint256"
        }
      ],
      "name": "transfer",
      "outputs": [
        {
          "internalType": "bool",
          "name": "",
          "type": "bool"
        }
      ],
      "stateMutability": "nonpayable",
      "type": "function"
    },
    {
      "inputs": [
        {
          "internalType": "address",
          "name": "from",
          "type": "address"
        },
        {
          "internalType": "address",
          "name": "to",
          "type": "address"
        },
        {
          "internalType": "uint256",
          "name": "value",
          "type": "uint256"
        }
      ],
      "name": "transferFrom",
      "outputs": [
        {
          "internalType": "bool",
          "name": "",
          "type": "bool"
        }
      ],
      "stateMutability": "nonpayable",
      "type": "function"
    },
    {
      "inputs": [
        {
          "internalType": "address",
          "name": "newOwner",
          "type": "address"
        }
      ],
      "name": "transferOwnership",
      "outputs": [],
      "stateMutability": "nonpayable",
      "type": "function"
    }
  ],
  "bytecode": "0x60806040523480156200001157600080fd5b50336040518060400160405280601c81526020017f446976657273696669656420506f7274666f6c696f204f7074696f6e000000008152506040518060400160405280600381526020016244504f60e81b815250816003908162000076919062000348565b50600462000085828262000348565b5050506001600160a01b038116620000b857604051631e4fbdf760e01b8152600060048201526024015b60405180910390fd5b620000c381620000e0565b50620000da3369d3c21bcecceda100000062000132565b6200043c565b600580546001600160a01b038381166001600160a01b0319831681179093556040519116919082907f8be0079c531659141344cd1fd0a4f28419497f9722a3daafe3b4186f6b6457e090600090a35050565b6001600160a01b0382166200015e5760405163ec442f0560e01b815260006004820152602401620000af565b6200016c6000838362000170565b5050565b6001600160a01b0383166200019f57806002600082825462000193919062000414565b90915550620002139050565b6001600160a01b03831660009081526020819052604090205481811015620001f45760405163391434e360e21b81526001600160a01b03851660048201526024810182905260448101839052606401620000af565b6001600160a01b03841660009081526020819052604090209082900390555b6001600160a01b038216620002315760028054829003905562000250565b6001600160a01b03821660009081526020819052604090208054820190555b816001600160a01b0316836001600160a01b03167fddf252ad1be2c89b69c2b068fc378daa952ba7f163c4a11628f55a4df523b3ef836040516200029691815260200190565b60405180910390a3505050565b634e487b7160e01b600052604160045260246000fd5b600181811c90821680620002ce57607f821691505b602082108103620002ef57634e487b7160e01b600052602260045260246000fd5b50919050565b601f8211156200034357600081815260208120601f850160051c810160208610156200031e5750805b601f850160051c820191505b818110156200033f578281556001016200032a565b5050505b505050565b81516001600160401b03811115620003645762000364620002a3565b6200037c81620003758454620002b9565b84620002f5565b602080601f831160018114620003b457600084156200039b5750858301515b600019600386901b1c1916600185901b1785556200033f565b600085815260208120601f198616915b82811015620003e557888601518255948401946001909101908401620003c4565b5085821015620004045787850151600019600388901b60f8161c191681555b5050505050600190811b01905550565b808201808211156200043657634e487b7160e01b600052601160045260246000fd5b92915050565b6112e2806200044c6000396000f3fe6080604052600436106101665760003560e01c80636a0f12fc116100d1578063988261d41161008a578063c9f16c1f11610064578063c9f16c1f14610486578063dd62ed3e146104d6578063ecd3ad241461051c578063f2fde38b1461053c57600080fd5b8063988261d4146103f8578063a9059cbb14610436578063aa2fe91b1461045657600080fd5b80636a0f12fc1461033d5780636f2842941461035d57806370a0823114610370578063715018a6146103a65780638da5cb5b146103bb57806395d89b41146103e357600080fd5b8063313ce56711610123578063313ce5671461026357806338fbe0c31461027f57806340c10f191461029f57806342966c68146102bf57806355de2823146102df57806368a7e30b1461031d57600080fd5b806306fdde031461016b5780630711b30414610196578063095ea7b3146101dc5780630c9848321461020c57806318160ddd1461022e57806323b872dd14610243575b600080fd5b34801561017757600080fd5b5061018061055c565b60405161018d9190611019565b60405180910390f35b3480156101a257600080fd5b506101ce6101b1366004611083565b600860209081526000928352604080842090915290825290205481565b60405190815260200161018d565b3480156101e857600080fd5b506101fc6101f7366004611083565b6105ee565b604051901515815260200161018d565b34801561021857600080fd5b5061022c6102273660046110ad565b610608565b005b34801561023a57600080fd5b506002546101ce565b34801561024f57600080fd5b506101fc61025e3660046110cf565b61065c565b34801561026f57600080fd5b506040516012815260200161018d565b34801561028b57600080fd5b5061022c61029a36600461110b565b610680565b3480156102ab57600080fd5b5061022c6102ba366004611083565b6107a7565b3480156102cb57600080fd5b5061022c6102da36600461114f565b610865565b3480156102eb57600080fd5b506101ce6102fa366004611168565b600760209081526000938452604080852082529284528284209052825290205481565b34801561032957600080fd5b5061022c610338366004611083565b610872565b34801561034957600080fd5b5061022c61035836600461110b565b610931565b61022c61036b3660046111a4565b6109d3565b34801561037c57600080fd5b506101ce61038b3660046110ad565b6001600160a01b031660009081526020819052604090205490565b3480156103b257600080fd5b5061022c610b14565b3480156103c757600080fd5b506005546040516001600160a01b03909116815260200161018d565b3480156103ef57600080fd5b50610180610b28565b34801561040457600080fd5b506101ce610413366004611168565b600960209081526000938452604080852082529284528284209052825290205481565b34801561044257600080fd5b506101fc610451366004611083565b610b37565b34801561046257600080fd5b506101fc6104713660046110ad565b60066020526000908152604090205460ff1681565b34801561049257600080fd5b506101ce6104a13660046110cf565b6001600160a01b0380831660009081526009602090815260408083208584528252808320938716835292905220549392505050565b3480156104e257600080fd5b506101ce6104f13660046111dd565b6001600160a01b03918216600090815260016020908152604080832093909416825291909152205490565b34801561052857600080fd5b5061022c6105373660046111a4565b610b45565b34801561054857600080fd5b5061022c6105573660046110ad565b610c05565b60606003805461056b90611210565b80601f016020809104026020016040519081016040528092919081815260200182805461059790611210565b80156105e45780601f106105b9576101008083540402835291602001916105e4565b820191906000526020600020905b8154815290600101906020018083116105c757829003601f168201915b5050505050905090565b6000336105fc818585610c40565b60019150505b92915050565b610610610c4d565b6001600160a01b038116600081815260066020526040808220805460ff19166001179055517f83b05b6735acd4b85e3bded8e72c851d1a87718f81e3c8e6f0c9d9a2baa88e469190a250565b60003361066a858285610c7a565b610675858585610cf9565b506001949350505050565b3360009081526006602052604090205460ff166106dd5760405162461bcd60e51b8152602060048201526016602482015275139bdd08185d5d1a1bdc9a5e9959081d1bc81b5a5b9d60521b60448201526064015b60405180910390fd5b6106e78282610d58565b6001600160a01b038085166000908152600760209081526040808320878452825280832093861683529290529081208054839290610726908490611260565b90915550506001600160a01b03841660009081526008602090815260408083208684529091528120805483929061075e908490611260565b90915550506040518181526001600160a01b038316907f3f2c9d57c068687834f0de942a9babb9e5acab57d516d3480a3c16ee165a42739060200160405180910390a250505050565b3360009081526006602052604090205460ff16806107cf57506005546001600160a01b031633145b6108145760405162461bcd60e51b8152602060048201526016602482015275139bdd08185d5d1a1bdc9a5e9959081d1bc81b5a5b9d60521b60448201526064016106d4565b61081e8282610d58565b816001600160a01b03167f3f2c9d57c068687834f0de942a9babb9e5acab57d516d3480a3c16ee165a42738260405161085991815260200190565b60405180910390a25050565b61086f3382610d92565b50565b6001600160a01b03821660009081526009602090815260408083208484528252808320338452909152902054801561092c576001600160a01b038316600090815260096020908152604080832085845282528083203380855292528220919091556108dd9082610d58565b81836001600160a01b0316336001600160a01b03167f4c0ecda9d5ab6447bca5a2e5c178e6f336e59c526ab37a3071885c5e0c31bdf28460405161092391815260200190565b60405180910390a45b505050565b610939610c4d565b6001600160a01b038085166000908152600960209081526040808320878452825280832093861683529290529081208054839290610978908490611260565b92505081905550816001600160a01b031683856001600160a01b03167fcd21153e8faa673d4c668e9e4165506a12f55f5d1d349c723b6407f8ab258dbb846040516109c591815260200190565b60405180910390a450505050565b670de0b6b3a76400006109e68284611273565b6109f0919061128a565b341015610a365760405162461bcd60e51b8152602060048201526014602482015273125b9cdd59999a58da595b9d081c185e5b595b9d60621b60448201526064016106d4565b6001600160a01b0384166000908152600760209081526040808320868452825280832033845290915281208054849290610a71908490611260565b909155505060408051600181526020810184905290810182905283906001600160a01b0386169033907fd5644a59d9b490a06e4497163f7bb855c06879ded9e1a713f5e398a8bc0b92c39060600160405180910390a460408051848152602081018490529081018290526001600160a01b03851690339081907f6d2a49dc58cbd626bd59e1de8c53b7f89e2d4593ffa0c77aaadb93d227fb077a906060016109c5565b610b1c610c4d565b610b266000610dc8565b565b60606004805461056b90611210565b6000336105fc818585610cf9565b6001600160a01b03841660009081526007602090815260408083208684528252808320338452909152902054821115610bb75760405162461bcd60e51b8152602060048201526014602482015273496e73756666696369656e742062616c616e636560601b60448201526064016106d4565b60408051600081526020810184905290810182905283906001600160a01b0386169033907fd5644a59d9b490a06e4497163f7bb855c06879ded9e1a713f5e398a8bc0b92c3906060016109c5565b610c0d610c4d565b6001600160a01b038116610c3757604051631e4fbdf760e01b8152600060048201526024016106d4565b61086f81610dc8565b61092c8383836001610e1a565b6005546001600160a01b03163314610b265760405163118cdaa760e01b81523360048201526024016106d4565b6001600160a01b03838116600090815260016020908152604080832093861683529290522054600019811015610cf35781811015610ce457604051637dc7a0d960e11b81526001600160a01b038416600482015260248101829052604481018390526064016106d4565b610cf384848484036000610e1a565b50505050565b6001600160a01b038316610d2357604051634b637e8f60e11b8152600060048201526024016106d4565b6001600160a01b038216610d4d5760405163ec442f0560e01b8152600060048201526024016106d4565b61092c838383610eef565b6001600160a01b038216610d825760405163ec442f0560e01b8152600060048201526024016106d4565b610d8e60008383610eef565b5050565b6001600160a01b038216610dbc57604051634b637e8f60e11b8152600060048201526024016106d4565b610d8e82600083610eef565b600580546001600160a01b038381166001600160a01b0319831681179093556040519116919082907f8be0079c531659141344cd1fd0a4f28419497f9722a3daafe3b4186f6b6457e090600090a35050565b6001600160a01b038416610e445760405163e602df0560e01b8152600060048201526024016106d4565b6001600160a01b038316610e6e57604051634a1406b160e11b8152600060048201526024016106d4565b6001600160a01b0380851660009081526001602090815260408083209387168352929052208290558015610cf357826001600160a01b0316846001600160a01b03167f8c5be1e5ebec7d5bd14f71427d1e84f3dd0314c0f7b2291e5b200ac8c7c3b92584604051610ee191815260200190565b60405180910390a350505050565b6001600160a01b038316610f1a578060026000828254610f0f9190611260565b90915550610f8c9050565b6001600160a01b03831660009081526020819052604090205481811015610f6d5760405163391434e360e21b81526001600160a01b038516600482015260248101829052604481018390526064016106d4565b6001600160a01b03841660009081526020819052604090209082900390555b6001600160a01b038216610fa857600280548290039055610fc7565b6001600160a01b03821660009081526020819052604090208054820190555b816001600160a01b0316836001600160a01b03167fddf252ad1be2c89b69c2b068fc378daa952ba7f163c4a11628f55a4df523b3ef8360405161100c91815260200190565b60405180910390a3505050565b600060208083528351808285015260005b818110156110465785810183015185820160400152820161102a565b506000604082860101526040601f19601f8301168501019250505092915050565b80356001600160a01b038116811461107e57600080fd5b919050565b6000806040838503121561109657600080fd5b61109f83611067565b946020939093013593505050565b6000602082840312156110bf57600080fd5b6110c882611067565b9392505050565b6000806000606084860312156110e457600080fd5b6110ed84611067565b92506110fb60208501611067565b9150604084013590509250925092565b6000806000806080858703121561112157600080fd5b61112a85611067565b93506020850135925061113f60408601611067565b9396929550929360600135925050565b60006020828403121561116157600080fd5b5035919050565b60008060006060848603121561117d57600080fd5b61118684611067565b92506020840135915061119b60408501611067565b90509250925092565b600080600080608085870312156111ba57600080fd5b6111c385611067565b966020860135965060408601359560600135945092505050565b600080604083850312156111f057600080fd5b6111f983611067565b915061120760208401611067565b90509250929050565b600181811c9082168061122457607f821691505b60208210810361124457634e487b7160e01b600052602260045260246000fd5b50919050565b634e487b7160e01b600052601160045260246000fd5b808201808211156106025761060261124a565b80820281158282048414176106025761060261124a565b6000826112a757634e487b7160e01b600052601260045260246000fd5b50049056fea2646970667358221220c6350d2911dc02f56e4bef204e5ce9ef757939069bd6d69ac12dee0f964dd4ef64736f6c63430008150033",
  "linkReferences": {},
  "deployedLinkReferences": {}
}