{
  "_format": "hh-sol-artifact-1",
  "contractName": "NFTVaultV3",
  "sourceName": "contracts/NFTVaultV3.sol",
  "abi": [
    {
      "inputs": [
        {
          "internalType": "address",
          "name": "_oracle",
          "type": "address"
        }
      ],
      "stateMutability": "nonpayable",
      "type": "constructor"
    },
    {
      "inputs": [
        {
          "internalType": "address",
          "name": "owner",
          "type": "address"
        }
      ],
      "name": "OwnableInvalidOwner",
      "type": "error"
    },
    {
      "inputs": [
        {
          "internalType": "address",
          "name": "account",
          "type": "address"
        }
      ],
      "name": "OwnableUnauthorizedAccount",
      "type": "error"
    },
    {
      "inputs": [],
      "name": "ReentrancyGuardReentrantCall",
      "type": "error"
    },
    {
      "anonymous": false,
      "inputs": [
        {
          "indexed": true,
          "internalType": "address",
          "name": "collection",
          "type": "address"
        },
        {
          "indexed": false,
          "internalType": "uint256",
          "name": "maxLTV",
          "type": "uint256"
        },
        {
          "indexed": false,
          "internalType": "uint256",
          "name": "liquidationThreshold",
          "type": "uint256"
        }
      ],
      "name": "CollectionAdded",
      "type": "event"
    },
    {
      "anonymous": false,
      "inputs": [
        {
          "indexed": true,
          "internalType": "address",
          "name": "collection",
          "type": "address"
        },
        {
          "indexed": false,
          "internalType": "uint8",
          "name": "tier",
          "type": "uint8"
        }
      ],
      "name": "CollectionRiskTierSet",
      "type": "event"
    },
    {
      "anonymous": false,
      "inputs": [
        {
          "indexed": true,
          "internalType": "address",
          "name": "collection",
          "type": "address"
        },
        {
          "indexed": false,
          "internalType": "uint8",
          "name": "category",
          "type": "uint8"
        }
      ],
      "name": "GameCategorySet",
      "type": "event"
    },
    {
      "anonymous": false,
      "inputs": [
        {
          "indexed": true,
          "internalType": "address",
          "name": "collection",
          "type": "address"
        },
        {
          "indexed": true,
          "internalType": "uint256",
          "name": "tokenId",
          "type": "uint256"
        },
        {
          "indexed": false,
          "internalType": "uint256",
          "name": "debtAmount",
          "type": "uint256"
        },
        {
          "indexed": false,
          "internalType": "uint256",
          "name": "salePrice",
          "type": "uint256"
        }
      ],
      "name": "Liquidation",
      "type": "event"
    },
    {
      "anonymous": false,
      "inputs": [
        {
          "indexed": true,
          "internalType": "address",
          "name": "user",
          "type": "address"
        },
        {
          "indexed": true,
          "internalType": "address",
          "name": "collection",
          "type": "address"
        },
        {
          "indexed": true,
          "internalType": "uint256",
          "name": "tokenId",
          "type": "uint256"
        },
        {
          "indexed": false,
          "internalType": "uint256",
          "name": "amount",
          "type": "uint256"
        }
      ],
      "name": "LoanCreated",
      "type": "event"
    },
    {
      "anonymous": false,
      "inputs": [
        {
          "indexed": true,
          "internalType": "address",
          "name": "user",
          "type": "address"
        },
        {
          "indexed": true,
          "internalType": "address",
          "name": "collection",
          "type": "address"
        },
        {
          "indexed": true,
          "internalType": "uint256",
          "name": "tokenId",
          "type": "uint256"
        },
        {
          "indexed": false,
          "internalType": "uint256",
          "name": "amount",
          "type": "uint256"
        }
      ],
      "name": "LoanRepaid",
      "type": "event"
    },
    {
      "anonymous": false,
      "inputs": [
        {
          "indexed": true,
          "internalType": "address",
          "name": "user",
          "type": "address"
        },
        {
          "indexed": true,
          "internalType": "address",
          "name": "collection",
          "type": "address"
        },
        {
          "indexed": true,
          "internalType": "uint256",
          "name": "tokenId",
          "type": "uint256"
        }
      ],
      "name": "NFTDeposited",
      "type": "event"
    },
    {
      "anonymous": false,
      "inputs": [
        {
          "indexed": true,
          "internalType": "address",
          "name": "user",
          "type": "address"
        },
        {
          "indexed": true,
          "internalType": "address",
          "name": "collection",
          "type": "address"
        },
        {
          "indexed": true,
          "internalType": "uint256",
          "name": "tokenId",
          "type": "uint256"
        }
      ],
      "name": "NFTWithdrawn",
      "type": "event"
    },
    {
      "anonymous": false,
      "inputs": [
        {
          "indexed": true,
          "internalType": "address",
          "name": "previousOwner",
          "type": "address"
        },
        {
          "indexed": true,
          "internalType": "address",
          "name": "newOwner",
          "type": "address"
        }
      ],
      "name": "OwnershipTransferred",
      "type": "event"
    },
    {
      "inputs": [],
      "name": "BASIS_POINTS",
      "outputs": [
        {
          "internalType": "uint256",
          "name": "",
          "type": "uint256"
        }
      ],
      "stateMutability": "view",
      "type": "function"
    },
    {
      "inputs": [],
      "name": "LIQUIDATION_PENALTY",
      "outputs": [
        {
          "internalType": "uint256",
          "name": "",
          "type": "uint256"
        }
      ],
      "stateMutability": "view",
      "type": "function"
    },
    {
      "inputs": [],
      "name": "SECONDS_PER_YEAR",
      "outputs": [
        {
          "internalType": "uint256",
          "name": "",
          "type": "uint256"
        }
      ],
      "stateMutability": "view",
      "type": "function"
    },
    {
      "inputs": [
        {
          "internalType": "address",
          "name": "collection",
          "type": "address"
        }
      ],
      "name": "addSupportedCollection",
      "outputs": [],
      "stateMutability": "nonpayable",
      "type": "function"
    },
    {
      "inputs": [
        {
          "internalType": "address",
          "name": "collection",
          "type": "address"
        },
        {
          "internalType": "uint256",
          "name": "maxLTV",
          "type": "uint256"
        },
        {
          "internalType": "uint256",
          "name": "liquidationThreshold",
          "type": "uint256"
        },
        {
          "internalType": "uint256",
          "name": "baseInterestRate",
          "type": "uint256"
        }
      ],
      "name": "addSupportedCollection",
      "outputs": [],
      "stateMutability": "nonpayable",
      "type": "function"
    },
    {
      "inputs": [
        {
          "internalType": "address",
          "name": "collection",
          "type": "address"
        },
        {
          "internalType": "uint256",
          "name": "tokenId",
          "type": "uint256"
        },
        {
          "internalType": "uint256",
          "name": "amount",
          "type": "uint256"
        }
      ],
      "name": "borrow",
      "outputs": [],
      "stateMutability": "nonpayable",
      "type": "function"
    },
    {
      "inputs": [
        {
          "internalType": "address",
          "name": "",
          "type": "address"
        }
      ],
      "name": "collectionConfigs",
      "outputs": [
        {
          "internalType": "bool",
          "name": "isSupported",
          "type": "bool"
        },
        {
          "internalType": "uint256",
          "name": "maxLTV",
          "type": "uint256"
        },
        {
          "internalType": "uint256",
          "name": "liquidationThreshold",
          "type": "uint256"
        },
        {
          "internalType": "uint256",
          "name": "baseInterestRate",
          "type": "uint256"
        }
      ],
      "stateMutability": "view",
      "type": "function"
    },
    {
      "inputs": [
        {
          "internalType": "address",
          "name": "",
          "type": "address"
        }
      ],
      "name": "collectionRiskTiers",
      "outputs": [
        {
          "internalType": "uint8",
          "name": "",
          "type": "uint8"
        }
      ],
      "stateMutability": "view",
      "type": "function"
    },
    {
      "inputs": [
        {
          "internalType": "address",
          "name": "collection",
          "type": "address"
        },
        {
          "internalType": "uint256",
          "name": "tokenId",
          "type": "uint256"
        }
      ],
      "name": "depositNFT",
      "outputs": [],
      "stateMutability": "nonpayable",
      "type": "function"
    },
    {
      "inputs": [
        {
          "internalType": "address",
          "name": "",
          "type": "address"
        },
        {
          "internalType": "uint256",
          "name": "",
          "type": "uint256"
        }
      ],
      "name": "deposits",
      "outputs": [
        {
          "internalType": "address",
          "name": "owner",
          "type": "address"
        },
        {
          "internalType": "uint256",
          "name": "depositTime",
          "type": "uint256"
        },
        {
          "internalType": "bool",
          "name": "isActive",
          "type": "bool"
        }
      ],
      "stateMutability": "view",
      "type": "function"
    },
    {
      "inputs": [
        {
          "internalType": "address",
          "name": "collection",
          "type": "address"
        },
        {
          "internalType": "uint256",
          "name": "tokenId",
          "type": "uint256"
        }
      ],
      "name": "emergencyWithdraw",
      "outputs": [],
      "stateMutability": "nonpayable",
      "type": "function"
    },
    {
      "inputs": [
        {
          "internalType": "address",
          "name": "collection",
          "type": "address"
        },
        {
          "internalType": "uint256",
          "name": "tokenId",
          "type": "uint256"
        }
      ],
      "name": "getCurrentLTV",
      "outputs": [
        {
          "internalType": "uint256",
          "name": "",
          "type": "uint256"
        }
      ],
      "stateMutability": "view",
      "type": "function"
    },
    {
      "inputs": [
        {
          "internalType": "address",
          "name": "collection",
          "type": "address"
        },
        {
          "internalType": "uint256",
          "name": "tokenId",
          "type": "uint256"
        }
      ],
      "name": "getMaxBorrowAmount",
      "outputs": [
        {
          "internalType": "uint256",
          "name": "",
          "type": "uint256"
        }
      ],
      "stateMutability": "view",
      "type": "function"
    },
    {
      "inputs": [
        {
          "internalType": "address",
          "name": "collection",
          "type": "address"
        },
        {
          "internalType": "uint256",
          "name": "tokenId",
          "type": "uint256"
        }
      ],
      "name": "getMaxLTV",
      "outputs": [
        {
          "internalType": "uint256",
          "name": "",
          "type": "uint256"
        }
      ],
      "stateMutability": "view",
      "type": "function"
    },
    {
      "inputs": [
        {
          "internalType": "address",
          "name": "collection",
          "type": "address"
        },
        {
          "internalType": "uint256",
          "name": "tokenId",
          "type": "uint256"
        }
      ],
      "name": "getTotalDebt",
      "outputs": [
        {
          "internalType": "uint256",
          "name": "",
          "type": "uint256"
        }
      ],
      "stateMutability": "view",
      "type": "function"
    },
    {
      "inputs": [
        {
          "internalType": "address",
          "name": "user",
          "type": "address"
        },
        {
          "internalType": "address",
          "name": "collection",
          "type": "address"
        },
        {
          "internalType": "uint256",
          "name": "tokenId",
          "type": "uint256"
        }
      ],
      "name": "getUserPosition",
      "outputs": [
        {
          "internalType": "bool",
          "name": "hasDeposit",
          "type": "bool"
        },
        {
          "internalType": "bool",
          "name": "hasLoan",
          "type": "bool"
        },
        {
          "internalType": "uint256",
          "name": "loanAmount",
          "type": "uint256"
        },
        {
          "internalType": "uint256",
          "name": "totalDebt",
          "type": "uint256"
        },
        {
          "internalType": "uint256",
          "name": "maxBorrow",
          "type": "uint256"
        },
        {
          "internalType": "uint256",
          "name": "currentLTV",
          "type": "uint256"
        }
      ],
      "stateMutability": "view",
      "type": "function"
    },
    {
      "inputs": [
        {
          "internalType": "address",
          "name": "collection",
          "type": "address"
        },
        {
          "internalType": "uint256",
          "name": "tokenId",
          "type": "uint256"
        }
      ],
      "name": "liquidate",
      "outputs": [],
      "stateMutability": "nonpayable",
      "type": "function"
    },
    {
      "inputs": [
        {
          "internalType": "address",
          "name": "",
          "type": "address"
        },
        {
          "internalType": "uint256",
          "name": "",
          "type": "uint256"
        }
      ],
      "name": "loans",
      "outputs": [
        {
          "internalType": "uint256",
          "name": "amount",
          "type": "uint256"
        },
        {
          "internalType": "uint256",
          "name": "startTime",
          "type": "uint256"
        },
        {
          "internalType": "uint256",
          "name": "interestRate",
          "type": "uint256"
        },
        {
          "internalType": "bool",
          "name": "isActive",
          "type": "bool"
        }
      ],
      "stateMutability": "view",
      "type": "function"
    },
    {
      "inputs": [],
      "name": "oracle",
      "outputs": [
        {
          "internalType": "contract IGameFiOracle",
          "name": "",
          "type": "address"
        }
      ],
      "stateMutability": "view",
      "type": "function"
    },
    {
      "inputs": [],
      "name": "owner",
      "outputs": [
        {
          "internalType": "address",
          "name": "",
          "type": "address"
        }
      ],
      "stateMutability": "view",
      "type": "function"
    },
    {
      "inputs": [],
      "name": "renounceOwnership",
      "outputs": [],
      "stateMutability": "nonpayable",
      "type": "function"
    },
    {
      "inputs": [
        {
          "internalType": "address",
          "name": "collection",
          "type": "address"
        },
        {
          "internalType": "uint256",
          "name": "tokenId",
          "type": "uint256"
        }
      ],
      "name": "repayLoan",
      "outputs": [],
      "stateMutability": "payable",
      "type": "function"
    },
    {
      "inputs": [
        {
          "internalType": "uint8",
          "name": "",
          "type": "uint8"
        }
      ],
      "name": "riskModels",
      "outputs": [
        {
          "internalType": "uint256",
          "name": "baseLTV",
          "type": "uint256"
        },
        {
          "internalType": "uint256",
          "name": "liquidationThreshold",
          "type": "uint256"
        },
        {
          "internalType": "uint256",
          "name": "maxUtilityBonus",
          "type": "uint256"
        },
        {
          "internalType": "uint256",
          "name": "minCollateralAmount",
          "type": "uint256"
        }
      ],
      "stateMutability": "view",
      "type": "function"
    },
    {
      "inputs": [
        {
          "internalType": "address",
          "name": "collection",
          "type": "address"
        },
        {
          "internalType": "uint8",
          "name": "tier",
          "type": "uint8"
        }
      ],
      "name": "setCollectionRiskTier",
      "outputs": [],
      "stateMutability": "nonpayable",
      "type": "function"
    },
    {
      "inputs": [
        {
          "internalType": "address",
          "name": "collection",
          "type": "address"
        },
        {
          "internalType": "uint8",
          "name": "category",
          "type": "uint8"
        }
      ],
      "name": "setGameCategory",
      "outputs": [],
      "stateMutability": "nonpayable",
      "type": "function"
    },
    {
      "inputs": [
        {
          "internalType": "address",
          "name": "newOwner",
          "type": "address"
        }
      ],
      "name": "transferOwnership",
      "outputs": [],
      "stateMutability": "nonpayable",
      "type": "function"
    },
    {
      "inputs": [
        {
          "internalType": "address",
          "name": "_oracle",
          "type": "address"
        }
      ],
      "name": "updateOracle",
      "outputs": [],
      "stateMutability": "nonpayable",
      "type": "function"
    },
    {
      "inputs": [
        {
          "internalType": "address",
          "name": "",
          "type": "address"
        }
      ],
      "name": "userETHBalances",
      "outputs": [
        {
          "internalType": "uint256",
          "name": "",
          "type": "uint256"
        }
      ],
      "stateMutability": "view",
      "type": "function"
    },
    {
      "inputs": [
        {
          "internalType": "uint256",
          "name": "amount",
          "type": "uint256"
        }
      ],
      "name": "withdrawETH",
      "outputs": [],
      "stateMutability": "nonpayable",
      "type": "function"
    },
    {
      "inputs": [
        {
          "internalType": "address",
          "name": "collection",
          "type": "address"
        },
        {
          "internalType": "uint256",
          "name": "tokenId",
          "type": "uint256"
        }
      ],
      "name": "withdrawNFT",
      "outputs": [],
      "stateMutability": "nonpayable",
      "type": "function"
    },
    {
      "stateMutability": "payable",
      "type": "receive"
    }
  ],
  "bytecode": "0x60806040523480156200001157600080fd5b5060405162002483380380620024838339810160408190526200003491620004a9565b33806200005b57604051631e4fbdf760e01b81526000600482015260240160405180910390fd5b620000668162000459565b506001808055600280546001600160a01b0319166001600160a01b039390931692909217825560408051608080820183526046808352605060208085019182526014858701908152670de0b6b3a764000060608088019182526000998a52600880855297517fad67d757c34507f157cacfa2e3153e9f260a2244f30428821be7be64587ac55f5593517fad67d757c34507f157cacfa2e3153e9f260a2244f30428821be7be64587ac5605590517fad67d757c34507f157cacfa2e3153e9f260a2244f30428821be7be64587ac56155517fad67d757c34507f157cacfa2e3153e9f260a2244f30428821be7be64587ac56255855180850187526041808252604b828401908152600f838a01908152671bc16d674ec800008487019081529b8b5288855292517f6add646517a5b0f6793cd5891b7937d28a5b2981a5d88ebc7cd776088fea904155517f6add646517a5b0f6793cd5891b7937d28a5b2981a5d88ebc7cd776088fea90425590517f6add646517a5b0f6793cd5891b7937d28a5b2981a5d88ebc7cd776088fea90435597517f6add646517a5b0f6793cd5891b7937d28a5b2981a5d88ebc7cd776088fea90445585518085018752603c808252818301948552600a8289019081526729a2241af62c000083860190815260038b5288855292517f625b35f5e76f098dd7c3a05b10e2e5e78a4a01228d60c3b143426cdf36d264555594517f625b35f5e76f098dd7c3a05b10e2e5e78a4a01228d60c3b143426cdf36d264565593517f625b35f5e76f098dd7c3a05b10e2e5e78a4a01228d60c3b143426cdf36d2645755517f625b35f5e76f098dd7c3a05b10e2e5e78a4a01228d60c3b143426cdf36d26458558551808501875260378152808201988952808701868152674563918244f4000082850190815260048a5287845291517f9321edea6e3be4df59a344b401fab4f888b556fda1f954244cff9204bad624b85598517f9321edea6e3be4df59a344b401fab4f888b556fda1f954244cff9204bad624b95597517f9321edea6e3be4df59a344b401fab4f888b556fda1f954244cff9204bad624ba5596517f9321edea6e3be4df59a344b401fab4f888b556fda1f954244cff9204bad624bb5584519283018552603283528287019182526005948301858152678ac7230489e80000918401918252949095529190945292517f91238f30f286c9a1c6e901c4eda3b214c381c846e3dbe48df95c21488e8e1fdb5591517f91238f30f286c9a1c6e901c4eda3b214c381c846e3dbe48df95c21488e8e1fdc5590517f91238f30f286c9a1c6e901c4eda3b214c381c846e3dbe48df95c21488e8e1fdd55517f91238f30f286c9a1c6e901c4eda3b214c381c846e3dbe48df95c21488e8e1fde55620004db565b600080546001600160a01b038381166001600160a01b0319831681178455604051919092169283917f8be0079c531659141344cd1fd0a4f28419497f9722a3daafe3b4186f6b6457e09190a35050565b600060208284031215620004bc57600080fd5b81516001600160a01b0381168114620004d457600080fd5b9392505050565b611f9880620004eb6000396000f3fe6080604052600436106101d15760003560e01c80639b5b9b18116100f7578063e1f1c4a711610095578063f14210a611610064578063f14210a61461069c578063f1569f5c146106bc578063f2fde38b146106dc578063fe273467146106fc57600080fd5b8063e1f1c4a71461060c578063e4d13c9514610622578063e6a69ab814610642578063e8b5c0571461065a57600080fd5b8063b85df01a116100d1578063b85df01a14610531578063bcbaf48714610551578063c1bce0b714610571578063d6d681771461059157600080fd5b80639b5b9b18146104935780639b8621d5146104b3578063a34ac81b146104c957600080fd5b80637411fb191161016f5780638da5cb5b1161013e5780638da5cb5b146103d057806393a595f5146103ee57806395ccea671461040157806398c61c371461042157600080fd5b80637411fb19146103095780637d6aaab1146103295780637dc0d1d01461037857806380b88a2e146103b057600080fd5b80636088e93a116101ab5780636088e93a146102865780636530508b146102a6578063708be43d146102d4578063715018a6146102f457600080fd5b80631cb44dfc146101dd5780632645647e146101ff5780634e2e46d71461026657600080fd5b366101d857005b600080fd5b3480156101e957600080fd5b506101fd6101f8366004611ccb565b610729565b005b34801561020b57600080fd5b5061024161021a366004611d05565b60086020526000908152604090208054600182015460028301546003909301549192909184565b6040805194855260208501939093529183015260608201526080015b60405180910390f35b34801561027257600080fd5b506101fd610281366004611ccb565b610753565b34801561029257600080fd5b506101fd6102a1366004611d20565b610770565b3480156102b257600080fd5b506102c66102c1366004611d20565b61092d565b60405190815260200161025d565b3480156102e057600080fd5b506102c66102ef366004611d20565b610a1b565b34801561030057600080fd5b506101fd610b34565b34801561031557600080fd5b506102c6610324366004611d20565b610b48565b34801561033557600080fd5b50610349610344366004611d4c565b610c18565b6040805196151587529415156020870152938501929092526060840152608083015260a082015260c00161025d565b34801561038457600080fd5b50600254610398906001600160a01b031681565b6040516001600160a01b03909116815260200161025d565b3480156103bc57600080fd5b506102c66103cb366004611d20565b610d0d565b3480156103dc57600080fd5b506000546001600160a01b0316610398565b6101fd6103fc366004611d20565b610ee2565b34801561040d57600080fd5b506101fd61041c366004611d20565b611085565b34801561042d57600080fd5b5061047161043c366004611d20565b600460209081526000928352604080842090915290825290208054600182015460028301546003909301549192909160ff1684565b604080519485526020850193909352918301521515606082015260800161025d565b34801561049f57600080fd5b506101fd6104ae366004611d20565b611104565b3480156104bf57600080fd5b506102c66103e881565b3480156104d557600080fd5b5061050f6104e4366004611ccb565b600560205260009081526040902080546001820154600283015460039093015460ff90921692909184565b604080519415158552602085019390935291830152606082015260800161025d565b34801561053d57600080fd5b506101fd61054c366004611d8d565b61132f565b34801561055d57600080fd5b506101fd61056c366004611d20565b6113f0565b34801561057d57600080fd5b506101fd61058c366004611dc2565b611661565b34801561059d57600080fd5b506105e56105ac366004611d20565b60036020908152600092835260408084209091529082529020805460018201546002909201546001600160a01b03909116919060ff1683565b604080516001600160a01b039094168452602084019290925215159082015260600161025d565b34801561061857600080fd5b506102c661271081565b34801561062e57600080fd5b506101fd61063d366004611df7565b611936565b34801561064e57600080fd5b506102c66301e1338081565b34801561066657600080fd5b5061068a610675366004611ccb565b60076020526000908152604090205460ff1681565b60405160ff909116815260200161025d565b3480156106a857600080fd5b506101fd6106b7366004611e32565b611a72565b3480156106c857600080fd5b506101fd6106d7366004611d8d565b611b33565b3480156106e857600080fd5b506101fd6106f7366004611ccb565b611bd4565b34801561070857600080fd5b506102c6610717366004611ccb565b60066020526000908152604090205481565b610731611c0f565b600280546001600160a01b0319166001600160a01b0392909216919091179055565b61075b611c0f565b61076d81611b586121346101f4611936565b50565b610778611c3c565b6001600160a01b0380831660009081526003602090815260408083208584529091529020805490911633146107c85760405162461bcd60e51b81526004016107bf90611e4b565b60405180910390fd5b600281015460ff1661080d5760405162461bcd60e51b815260206004820152600e60248201526d4e4654206e6f742061637469766560901b60448201526064016107bf565b6001600160a01b038316600090815260046020908152604080832085845290915290206003015460ff16156108795760405162461bcd60e51b8152602060048201526012602482015271416374697665206c6f616e2065786973747360701b60448201526064016107bf565b60028101805460ff191690556040516323b872dd60e01b81526001600160a01b038416906323b872dd906108b590309033908790600401611e71565b600060405180830381600087803b1580156108cf57600080fd5b505af11580156108e3573d6000803e3d6000fd5b50506040518492506001600160a01b038616915033907fbbde41973f9ce4890f7ad9762c23d8191f261fd643bdf13ed8bbc10549b49fcb90600090a45061092960018055565b5050565b6001600160a01b038216600090815260046020908152604080832084845290915281206003015460ff1661096357506000610a15565b600061096f8484610b48565b6002546040516330f8853f60e21b81526001600160a01b0387811660048301529293506000929091169063c3e214fc90602401602060405180830381865afa1580156109bf573d6000803e3d6000fd5b505050506040513d601f19601f820116820180604052508101906109e39190611e95565b9050806000036109f95761271092505050610a15565b80610a0661271084611ec4565b610a109190611edb565b925050505b92915050565b6001600160a01b03821660009081526007602052604081205460ff16808203610a42575060035b60ff81166000908152600860209081526040808320815160808101835281548152600182015493810193909352600280820154848401526003909101546060840152549051635878d55760e11b81526001600160a01b038881166004830152602482018890529293929091169063b0f1aaae90604401602060405180830381865afa158015610ad5573d6000803e3d6000fd5b505050506040513d601f19601f82011682018060405250810190610af99190611e95565b905060006064836040015183610b0f9190611ec4565b610b199190611edb565b8351909150610b29908290611efd565b979650505050505050565b610b3c611c0f565b610b466000611c66565b565b6001600160a01b038216600090815260046020908152604080832084845282528083208151608081018352815481526001820154938101939093526002810154918301919091526003015460ff16151560608201819052610bad576000915050610a15565b6000816020015142610bbf9190611f10565b905060006301e133806127108385604001518660000151610be09190611ec4565b610bea9190611ec4565b610bf49190611edb565b610bfe9190611edb565b8351909150610c0e908290611efd565b9695505050505050565b6001600160a01b03808316600081815260036020818152604080842087855282528084208151606080820184528254891682526001808401548387015260029384015460ff908116151584870152988852600486528488208b895286528488208551608081018752815481529181015496820196909652928501549383019390935292909301549094161515938201939093528251919384938493849384938493928116908c16148015610ccd575081604001515b6060820151825191995097509550610ce58a8a610b48565b9450610cf18a8a610d0d565b9350610cfd8a8a61092d565b9250505093975093979195509350565b6002546040516381234e8b60e01b81526001600160a01b0384811660048301526024820184905260009216906381234e8b90604401602060405180830381865afa158015610d5f573d6000803e3d6000fd5b505050506040513d601f19601f82011682018060405250810190610d839190611f23565b610d8f57506000610a15565b6002546040516330f8853f60e21b81526001600160a01b038581166004830152600092169063c3e214fc90602401602060405180830381865afa158015610dda573d6000803e3d6000fd5b505050506040513d601f19601f82011682018060405250810190610dfe9190611e95565b600254604051635878d55760e11b81526001600160a01b038781166004830152602482018790529293506000929091169063b0f1aaae90604401602060405180830381865afa158015610e55573d6000803e3d6000fd5b505050506040513d601f19601f82011682018060405250810190610e799190611e95565b6001600160a01b0386166000908152600560205260408120600101549192506064610ea6846101f4611ec4565b610eb09190611edb565b610eba9083611efd565b9050611f40811115610ecb5750611f405b612710610ed88286611ec4565b610b299190611edb565b610eea611c3c565b6001600160a01b0380831660008181526004602090815260408083208684528252808320938352600382528083208684529091529020805491929091163314610f455760405162461bcd60e51b81526004016107bf90611e4b565b600382015460ff16610f8a5760405162461bcd60e51b815260206004820152600e60248201526d27379030b1ba34bb32903637b0b760911b60448201526064016107bf565b6000610f968585610b48565b905080341015610fdf5760405162461bcd60e51b8152602060048201526014602482015273125b9cdd59999a58da595b9d081c185e5b595b9d60621b60448201526064016107bf565b60038301805460ff191690553481101561102b57336108fc6110018334611f10565b6040518115909202916000818181858888f19350505050158015611029573d6000803e3d6000fd5b505b83856001600160a01b0316336001600160a01b03167fa6f6d5e50bc84f153a0d6a9f9b37780433f92dc32d7e10f975ab3831c36898fa8460405161107191815260200190565b60405180910390a450505061092960018055565b61108d611c0f565b816001600160a01b03166323b872dd306110af6000546001600160a01b031690565b846040518463ffffffff1660e01b81526004016110ce93929190611e71565b600060405180830381600087803b1580156110e857600080fd5b505af11580156110fc573d6000803e3d6000fd5b505050505050565b61110c611c3c565b6001600160a01b03821660009081526005602052604090205460ff166111745760405162461bcd60e51b815260206004820152601860248201527f436f6c6c656374696f6e206e6f7420737570706f72746564000000000000000060448201526064016107bf565b6040516331a9108f60e11b81526004810182905233906001600160a01b03841690636352211e90602401602060405180830381865afa1580156111bb573d6000803e3d6000fd5b505050506040513d601f19601f820116820180604052508101906111df9190611f45565b6001600160a01b0316146112255760405162461bcd60e51b815260206004820152600d60248201526c2737ba1027232a1037bbb732b960991b60448201526064016107bf565b6040516323b872dd60e01b81526001600160a01b038316906323b872dd9061125590339030908690600401611e71565b600060405180830381600087803b15801561126f57600080fd5b505af1158015611283573d6000803e3d6000fd5b5050604080516060810182523380825242602080840191825260018486018181526001600160a01b038b81166000818152600386528981208d8252909552888520975188546001600160a01b0319169216919091178755935191860191909155516002909401805460ff1916941515949094179093559251869550929350917f2214288c094665e4969e2968c71e56e0ab3c69646a5c773ec8c2a7ca3bf188089190a461092960018055565b611337611c0f565b60018160ff161015801561134f575060058160ff1611155b61138f5760405162461bcd60e51b815260206004820152601160248201527024b73b30b634b2103934b9b5903a34b2b960791b60448201526064016107bf565b6001600160a01b038216600081815260076020908152604091829020805460ff191660ff861690811790915591519182527fa0e1a1f8de8a2a38190e02750aba8c745a617cae0c8775f8179d2c1dcce975b391015b60405180910390a25050565b6113f8611c3c565b6001600160a01b03821660009081526004602090815260408083208484529091529020600381015460ff166114605760405162461bcd60e51b815260206004820152600e60248201526d27379030b1ba34bb32903637b0b760911b60448201526064016107bf565b600061146c848461092d565b6001600160a01b038516600090815260056020526040902060020154909150808210156114ce5760405162461bcd60e51b815260206004820152601060248201526f4e6f74206c6971756964617461626c6560801b60448201526064016107bf565b60006114da8686610b48565b6002546040516330f8853f60e21b81526001600160a01b0389811660048301529293506000929091169063c3e214fc90602401602060405180830381865afa15801561152a573d6000803e3d6000fd5b505050506040513d601f19601f8201168201806040525081019061154e9190611e95565b905060006127106115616103e882611f10565b61156b9084611ec4565b6115759190611edb565b6003808801805460ff199081169091556001600160a01b038b166000818152602093845260408082208d8352909452839020600201805490921690915590516323b872dd60e01b8152919250906323b872dd906115da90309033908c90600401611e71565b600060405180830381600087803b1580156115f457600080fd5b505af1158015611608573d6000803e3d6000fd5b505060408051868152602081018590528a93506001600160a01b038c1692507f1a1072eb98424f51d9ad56526f05cd82dc46f8965a96b7c421f18275753d248c910160405180910390a350505050505061092960018055565b611669611c3c565b6001600160a01b0380841660009081526003602090815260408083208684529091529020805490911633146116b05760405162461bcd60e51b81526004016107bf90611e4b565b600281015460ff166116f85760405162461bcd60e51b8152602060048201526011602482015270139195081b9bdd0819195c1bdcda5d1959607a1b60448201526064016107bf565b6001600160a01b038416600090815260046020908152604080832086845290915290206003015460ff16156117645760405162461bcd60e51b8152602060048201526012602482015271416374697665206c6f616e2065786973747360701b60448201526064016107bf565b60006117708585610d0d565b9050808311156117c25760405162461bcd60e51b815260206004820152601960248201527f416d6f756e742065786365656473206d617820626f72726f770000000000000060448201526064016107bf565b824710156118125760405162461bcd60e51b815260206004820152601c60248201527f496e73756666696369656e74207661756c74206c69717569646974790000000060448201526064016107bf565b6001600160a01b0385166000818152600560209081526040808320815160808082018452825460ff161515825260018084015483870152600280850154848701526003948501546060808601918252875194850188528d855242858a0190815291518589019081529085018481529a8a5260048952878a208f8b528952878a2094518555905192840192909255905190820155955195909101805460ff19169515159590951790945533835260069091529020546118d1908590611efd565b33600081815260066020908152604091829020939093555186815287926001600160a01b038a1692917f4ff1bde1d2bfa65462ed9c225b57b8446fe13abb1e46a9aa6161768bf59ed6d7910160405180910390a450505061193160018055565b505050565b61193e611c0f565b611f408311156119835760405162461bcd60e51b815260206004820152601060248201526f09ac2f04098a8ac40e8dede40d0d2ced60831b60448201526064016107bf565b828210156119d35760405162461bcd60e51b815260206004820152601d60248201527f496e76616c6964206c69717569646174696f6e207468726573686f6c6400000060448201526064016107bf565b6040805160808101825260018082526020808301878152838501878152606085018781526001600160a01b038b166000818152600586528890209651875460ff191690151517875592519486019490945551600285015591516003909301929092558251868152918201859052917f625bdb580013f4d558932dbfbe6cb31c5844cc1d6f2e587bbc826c92268b3006910160405180910390a250505050565b611a7a611c3c565b33600090815260066020526040902054811115611ad05760405162461bcd60e51b8152602060048201526014602482015273496e73756666696369656e742062616c616e636560601b60448201526064016107bf565b33600090815260066020526040902054611aeb908290611f10565b33600081815260066020526040808220939093559151909183156108fc02918491818181858888f19350505050158015611b29573d6000803e3d6000fd5b5061076d60018055565b611b3b611c0f565b60008160ff16118015611b525750600a8160ff1611155b611b965760405162461bcd60e51b8152602060048201526015602482015274496e76616c69642067616d652063617465676f727960581b60448201526064016107bf565b60405160ff821681526001600160a01b038316907fe38cc22612f666bbd2690c6fdadd6cf6d3b876662cdc7e4a303e4225787ff454906020016113e4565b611bdc611c0f565b6001600160a01b038116611c0657604051631e4fbdf760e01b8152600060048201526024016107bf565b61076d81611c66565b6000546001600160a01b03163314610b465760405163118cdaa760e01b81523360048201526024016107bf565b600260015403611c5f57604051633ee5aeb560e01b815260040160405180910390fd5b6002600155565b600080546001600160a01b038381166001600160a01b0319831681178455604051919092169283917f8be0079c531659141344cd1fd0a4f28419497f9722a3daafe3b4186f6b6457e09190a35050565b6001600160a01b038116811461076d57600080fd5b600060208284031215611cdd57600080fd5b8135611ce881611cb6565b9392505050565b803560ff81168114611d0057600080fd5b919050565b600060208284031215611d1757600080fd5b611ce882611cef565b60008060408385031215611d3357600080fd5b8235611d3e81611cb6565b946020939093013593505050565b600080600060608486031215611d6157600080fd5b8335611d6c81611cb6565b92506020840135611d7c81611cb6565b929592945050506040919091013590565b60008060408385031215611da057600080fd5b8235611dab81611cb6565b9150611db960208401611cef565b90509250929050565b600080600060608486031215611dd757600080fd5b8335611de281611cb6565b95602085013595506040909401359392505050565b60008060008060808587031215611e0d57600080fd5b8435611e1881611cb6565b966020860135965060408601359560600135945092505050565b600060208284031215611e4457600080fd5b5035919050565b6020808252600c908201526b139bdd081e5bdd5c8813919560a21b604082015260600190565b6001600160a01b039384168152919092166020820152604081019190915260600190565b600060208284031215611ea757600080fd5b5051919050565b634e487b7160e01b600052601160045260246000fd5b8082028115828204841417610a1557610a15611eae565b600082611ef857634e487b7160e01b600052601260045260246000fd5b500490565b80820180821115610a1557610a15611eae565b81810381811115610a1557610a15611eae565b600060208284031215611f3557600080fd5b81518015158114611ce857600080fd5b600060208284031215611f5757600080fd5b8151611ce881611cb656fea264697066735822122049ab7a1cbfe01b27f8bb53f6ac723ed5f8eddf4fcd508782179ecb49de3ab27d64736f6c63430008150033",
  "linkReferences": {},
  "deployedLinkReferences": {}
}